{
	"Desktop/P2P&BLOCKCHAIN/FinalTerm/contracts/MyContract.sol": {
		"MyContract": {
			"abi": [
				{
					"inputs": [],
					"stateMutability": "nonpayable",
					"type": "constructor"
				},
				{
					"inputs": [],
					"name": "buy",
					"outputs": [],
					"stateMutability": "nonpayable",
					"type": "function"
				},
				{
					"inputs": [],
					"name": "closeLottery",
					"outputs": [],
					"stateMutability": "nonpayable",
					"type": "function"
				},
				{
					"inputs": [],
					"name": "drawNumbers",
					"outputs": [],
					"stateMutability": "nonpayable",
					"type": "function"
				},
				{
					"inputs": [],
					"name": "givePrizes",
					"outputs": [],
					"stateMutability": "nonpayable",
					"type": "function"
				},
				{
					"inputs": [],
					"name": "mint",
					"outputs": [],
					"stateMutability": "nonpayable",
					"type": "function"
				},
				{
					"inputs": [],
					"name": "startNewRound",
					"outputs": [],
					"stateMutability": "nonpayable",
					"type": "function"
				}
			],
			"devdoc": {
				"kind": "dev",
				"methods": {},
				"version": 1
			},
			"evm": {
				"assembly": "    /* \"Desktop/P2P&BLOCKCHAIN/FinalTerm/contracts/MyContract.sol\":96:754  contract MyContract {... */\n  mstore(0x40, 0x80)\n    /* \"Desktop/P2P&BLOCKCHAIN/FinalTerm/contracts/MyContract.sol\":410:453  constructor() {... */\n  callvalue\n  dup1\n  iszero\n  tag_1\n  jumpi\n  0x00\n  dup1\n  revert\ntag_1:\n  pop\n    /* \"Desktop/P2P&BLOCKCHAIN/FinalTerm/contracts/MyContract.sol\":442:446  true */\n  0x01\n    /* \"Desktop/P2P&BLOCKCHAIN/FinalTerm/contracts/MyContract.sol\":433:439  active */\n  0x02\n  0x00\n    /* \"Desktop/P2P&BLOCKCHAIN/FinalTerm/contracts/MyContract.sol\":433:446  active = true */\n  0x0100\n  exp\n  dup2\n  sload\n  dup2\n  0xff\n  mul\n  not\n  and\n  swap1\n  dup4\n  iszero\n  iszero\n  mul\n  or\n  swap1\n  sstore\n  pop\n    /* \"Desktop/P2P&BLOCKCHAIN/FinalTerm/contracts/MyContract.sol\":96:754  contract MyContract {... */\n  dataSize(sub_0)\n  dup1\n  dataOffset(sub_0)\n  0x00\n  codecopy\n  0x00\n  return\nstop\n\nsub_0: assembly {\n        /* \"Desktop/P2P&BLOCKCHAIN/FinalTerm/contracts/MyContract.sol\":96:754  contract MyContract {... */\n      mstore(0x40, 0x80)\n      callvalue\n      dup1\n      iszero\n      tag_1\n      jumpi\n      0x00\n      dup1\n      revert\n    tag_1:\n      pop\n      jumpi(tag_2, lt(calldatasize, 0x04))\n      shr(0xe0, calldataload(0x00))\n      dup1\n      0x06d5ee54\n      eq\n      tag_3\n      jumpi\n      dup1\n      0x1249c58b\n      eq\n      tag_4\n      jumpi\n      dup1\n      0x676c902f\n      eq\n      tag_5\n      jumpi\n      dup1\n      0x6fd09816\n      eq\n      tag_6\n      jumpi\n      dup1\n      0xa6f2ae3a\n      eq\n      tag_7\n      jumpi\n      dup1\n      0xbd85948c\n      eq\n      tag_8\n      jumpi\n    tag_2:\n      0x00\n      dup1\n      revert\n        /* \"Desktop/P2P&BLOCKCHAIN/FinalTerm/contracts/MyContract.sol\":636:672  function givePrizes() public{... */\n    tag_3:\n      tag_9\n      tag_10\n      jump\t// in\n    tag_9:\n      stop\n        /* \"Desktop/P2P&BLOCKCHAIN/FinalTerm/contracts/MyContract.sol\":678:708  function mint() public{... */\n    tag_4:\n      tag_11\n      tag_12\n      jump\t// in\n    tag_11:\n      stop\n        /* \"Desktop/P2P&BLOCKCHAIN/FinalTerm/contracts/MyContract.sol\":593:630  function drawNumbers() public{... */\n    tag_5:\n      tag_13\n      tag_14\n      jump\t// in\n    tag_13:\n      stop\n        /* \"Desktop/P2P&BLOCKCHAIN/FinalTerm/contracts/MyContract.sol\":714:752  function closeLottery() public{... */\n    tag_6:\n      tag_15\n      tag_16\n      jump\t// in\n    tag_15:\n      stop\n        /* \"Desktop/P2P&BLOCKCHAIN/FinalTerm/contracts/MyContract.sol\":558:587  function buy() public{... */\n    tag_7:\n      tag_17\n      tag_18\n      jump\t// in\n    tag_17:\n      stop\n        /* \"Desktop/P2P&BLOCKCHAIN/FinalTerm/contracts/MyContract.sol\":459:552  function startNewRound() public{... */\n    tag_8:\n      tag_19\n      tag_20\n      jump\t// in\n    tag_19:\n      stop\n        /* \"Desktop/P2P&BLOCKCHAIN/FinalTerm/contracts/MyContract.sol\":636:672  function givePrizes() public{... */\n    tag_10:\n      jump\t// out\n        /* \"Desktop/P2P&BLOCKCHAIN/FinalTerm/contracts/MyContract.sol\":678:708  function mint() public{... */\n    tag_12:\n      jump\t// out\n        /* \"Desktop/P2P&BLOCKCHAIN/FinalTerm/contracts/MyContract.sol\":593:630  function drawNumbers() public{... */\n    tag_14:\n      jump\t// out\n        /* \"Desktop/P2P&BLOCKCHAIN/FinalTerm/contracts/MyContract.sol\":714:752  function closeLottery() public{... */\n    tag_16:\n      jump\t// out\n        /* \"Desktop/P2P&BLOCKCHAIN/FinalTerm/contracts/MyContract.sol\":558:587  function buy() public{... */\n    tag_18:\n      jump\t// out\n        /* \"Desktop/P2P&BLOCKCHAIN/FinalTerm/contracts/MyContract.sol\":459:552  function startNewRound() public{... */\n    tag_20:\n        /* \"Desktop/P2P&BLOCKCHAIN/FinalTerm/contracts/MyContract.sol\":513:518  false */\n      0x00\n        /* \"Desktop/P2P&BLOCKCHAIN/FinalTerm/contracts/MyContract.sol\":503:518  active == false */\n      iszero\n      iszero\n        /* \"Desktop/P2P&BLOCKCHAIN/FinalTerm/contracts/MyContract.sol\":503:509  active */\n      0x02\n      0x00\n      swap1\n      sload\n      swap1\n      0x0100\n      exp\n      swap1\n      div\n      0xff\n      and\n        /* \"Desktop/P2P&BLOCKCHAIN/FinalTerm/contracts/MyContract.sol\":503:518  active == false */\n      iszero\n      iszero\n      sub\n        /* \"Desktop/P2P&BLOCKCHAIN/FinalTerm/contracts/MyContract.sol\":500:545  if(active == false)... */\n      tag_27\n      jumpi\n        /* \"Desktop/P2P&BLOCKCHAIN/FinalTerm/contracts/MyContract.sol\":541:545  true */\n      0x01\n        /* \"Desktop/P2P&BLOCKCHAIN/FinalTerm/contracts/MyContract.sol\":532:538  active */\n      0x02\n      0x00\n        /* \"Desktop/P2P&BLOCKCHAIN/FinalTerm/contracts/MyContract.sol\":532:545  active = true */\n      0x0100\n      exp\n      dup2\n      sload\n      dup2\n      0xff\n      mul\n      not\n      and\n      swap1\n      dup4\n      iszero\n      iszero\n      mul\n      or\n      swap1\n      sstore\n      pop\n        /* \"Desktop/P2P&BLOCKCHAIN/FinalTerm/contracts/MyContract.sol\":500:545  if(active == false)... */\n    tag_27:\n        /* \"Desktop/P2P&BLOCKCHAIN/FinalTerm/contracts/MyContract.sol\":459:552  function startNewRound() public{... */\n      jump\t// out\n\n    auxdata: 0xa2646970667358221220fc646869b28715118efc5023e4211c3242038299020ec0dc13d1b72a5f2c97d564736f6c634300080d0033\n}\n",
				"bytecode": {
					"linkReferences": {},
					"object": "608060405234801561001057600080fd5b506001600260006101000a81548160ff0219169083151502179055506101078061003b6000396000f3fe6080604052348015600f57600080fd5b5060043610605a5760003560e01c806306d5ee5414605f5780631249c58b146067578063676c902f14606f5780636fd09816146077578063a6f2ae3a14607f578063bd85948c146087575b600080fd5b6065608f565b005b606d6091565b005b60756093565b005b607d6095565b005b60856097565b005b608d6099565b005b565b565b565b565b565b60001515600260009054906101000a900460ff1615150360cf576001600260006101000a81548160ff0219169083151502179055505b56fea2646970667358221220fc646869b28715118efc5023e4211c3242038299020ec0dc13d1b72a5f2c97d564736f6c634300080d0033",
					"opcodes": "PUSH1 0x80 PUSH1 0x40 MSTORE CALLVALUE DUP1 ISZERO PUSH2 0x10 JUMPI PUSH1 0x0 DUP1 REVERT JUMPDEST POP PUSH1 0x1 PUSH1 0x2 PUSH1 0x0 PUSH2 0x100 EXP DUP2 SLOAD DUP2 PUSH1 0xFF MUL NOT AND SWAP1 DUP4 ISZERO ISZERO MUL OR SWAP1 SSTORE POP PUSH2 0x107 DUP1 PUSH2 0x3B PUSH1 0x0 CODECOPY PUSH1 0x0 RETURN INVALID PUSH1 0x80 PUSH1 0x40 MSTORE CALLVALUE DUP1 ISZERO PUSH1 0xF JUMPI PUSH1 0x0 DUP1 REVERT JUMPDEST POP PUSH1 0x4 CALLDATASIZE LT PUSH1 0x5A JUMPI PUSH1 0x0 CALLDATALOAD PUSH1 0xE0 SHR DUP1 PUSH4 0x6D5EE54 EQ PUSH1 0x5F JUMPI DUP1 PUSH4 0x1249C58B EQ PUSH1 0x67 JUMPI DUP1 PUSH4 0x676C902F EQ PUSH1 0x6F JUMPI DUP1 PUSH4 0x6FD09816 EQ PUSH1 0x77 JUMPI DUP1 PUSH4 0xA6F2AE3A EQ PUSH1 0x7F JUMPI DUP1 PUSH4 0xBD85948C EQ PUSH1 0x87 JUMPI JUMPDEST PUSH1 0x0 DUP1 REVERT JUMPDEST PUSH1 0x65 PUSH1 0x8F JUMP JUMPDEST STOP JUMPDEST PUSH1 0x6D PUSH1 0x91 JUMP JUMPDEST STOP JUMPDEST PUSH1 0x75 PUSH1 0x93 JUMP JUMPDEST STOP JUMPDEST PUSH1 0x7D PUSH1 0x95 JUMP JUMPDEST STOP JUMPDEST PUSH1 0x85 PUSH1 0x97 JUMP JUMPDEST STOP JUMPDEST PUSH1 0x8D PUSH1 0x99 JUMP JUMPDEST STOP JUMPDEST JUMP JUMPDEST JUMP JUMPDEST JUMP JUMPDEST JUMP JUMPDEST JUMP JUMPDEST PUSH1 0x0 ISZERO ISZERO PUSH1 0x2 PUSH1 0x0 SWAP1 SLOAD SWAP1 PUSH2 0x100 EXP SWAP1 DIV PUSH1 0xFF AND ISZERO ISZERO SUB PUSH1 0xCF JUMPI PUSH1 0x1 PUSH1 0x2 PUSH1 0x0 PUSH2 0x100 EXP DUP2 SLOAD DUP2 PUSH1 0xFF MUL NOT AND SWAP1 DUP4 ISZERO ISZERO MUL OR SWAP1 SSTORE POP JUMPDEST JUMP INVALID LOG2 PUSH5 0x6970667358 0x22 SLT KECCAK256 0xFC PUSH5 0x6869B28715 GT DUP15 0xFC POP 0x23 0xE4 0x21 SHR ORIGIN TIMESTAMP SUB DUP3 SWAP10 MUL 0xE 0xC0 0xDC SGT 0xD1 0xB7 0x2A 0x5F 0x2C SWAP8 0xD5 PUSH5 0x736F6C6343 STOP ADDMOD 0xD STOP CALLER "
				},
				"gasEstimates": {
					"creation": {
						"codeDepositCost": "52600",
						"executionCost": "24372",
						"totalCost": "76972"
					},
					"external": {
						"buy()": "210",
						"closeLottery()": "188",
						"drawNumbers()": "166",
						"givePrizes()": "122",
						"mint()": "144",
						"startNewRound()": "26670"
					}
				},
				"methodIdentifiers": {
					"buy()": "a6f2ae3a",
					"closeLottery()": "6fd09816",
					"drawNumbers()": "676c902f",
					"givePrizes()": "06d5ee54",
					"mint()": "1249c58b",
					"startNewRound()": "bd85948c"
				}
			},
			"storageLayout": {
				"storage": [
					{
						"astId": 12,
						"contract": "Desktop/P2P&BLOCKCHAIN/FinalTerm/contracts/MyContract.sol:MyContract",
						"label": "balances",
						"offset": 0,
						"slot": "0",
						"type": "t_mapping(t_address,t_uint256)"
					},
					{
						"astId": 17,
						"contract": "Desktop/P2P&BLOCKCHAIN/FinalTerm/contracts/MyContract.sol:MyContract",
						"label": "tickets",
						"offset": 0,
						"slot": "1",
						"type": "t_mapping(t_address,t_struct(ticket)8_storage)"
					},
					{
						"astId": 19,
						"contract": "Desktop/P2P&BLOCKCHAIN/FinalTerm/contracts/MyContract.sol:MyContract",
						"label": "active",
						"offset": 0,
						"slot": "2",
						"type": "t_bool"
					}
				],
				"types": {
					"t_address": {
						"encoding": "inplace",
						"label": "address",
						"numberOfBytes": "20"
					},
					"t_array(t_uint256)5_storage": {
						"base": "t_uint256",
						"encoding": "inplace",
						"label": "uint256[5]",
						"numberOfBytes": "160"
					},
					"t_bool": {
						"encoding": "inplace",
						"label": "bool",
						"numberOfBytes": "1"
					},
					"t_mapping(t_address,t_struct(ticket)8_storage)": {
						"encoding": "mapping",
						"key": "t_address",
						"label": "mapping(address => struct MyContract.ticket)",
						"numberOfBytes": "32",
						"value": "t_struct(ticket)8_storage"
					},
					"t_mapping(t_address,t_uint256)": {
						"encoding": "mapping",
						"key": "t_address",
						"label": "mapping(address => uint256)",
						"numberOfBytes": "32",
						"value": "t_uint256"
					},
					"t_struct(ticket)8_storage": {
						"encoding": "inplace",
						"label": "struct MyContract.ticket",
						"members": [
							{
								"astId": 5,
								"contract": "Desktop/P2P&BLOCKCHAIN/FinalTerm/contracts/MyContract.sol:MyContract",
								"label": "numbers",
								"offset": 0,
								"slot": "0",
								"type": "t_array(t_uint256)5_storage"
							},
							{
								"astId": 7,
								"contract": "Desktop/P2P&BLOCKCHAIN/FinalTerm/contracts/MyContract.sol:MyContract",
								"label": "powerball",
								"offset": 0,
								"slot": "5",
								"type": "t_uint256"
							}
						],
						"numberOfBytes": "192"
					},
					"t_uint256": {
						"encoding": "inplace",
						"label": "uint256",
						"numberOfBytes": "32"
					}
				}
			},
			"userdoc": {
				"kind": "user",
				"methods": {},
				"version": 1
			}
		}
	}
}