{
	"Desktop/P2P&BLOCKCHAIN/FinalTerm/contracts/MyContract.sol": {
		"MyContract": {
			"abi": [
				{
					"inputs": [],
					"stateMutability": "payable",
					"type": "constructor"
				},
				{
					"inputs": [
						{
							"internalType": "uint256",
							"name": "_numbers",
							"type": "uint256"
						},
						{
							"internalType": "uint256",
							"name": "_powerball",
							"type": "uint256"
						}
					],
					"name": "buy",
					"outputs": [
						{
							"internalType": "bool",
							"name": "",
							"type": "bool"
						}
					],
					"stateMutability": "payable",
					"type": "function"
				},
				{
					"inputs": [],
					"name": "closeLottery",
					"outputs": [],
					"stateMutability": "nonpayable",
					"type": "function"
				},
				{
					"inputs": [],
					"name": "drawNumbers",
					"outputs": [],
					"stateMutability": "nonpayable",
					"type": "function"
				},
				{
					"inputs": [],
					"name": "givePrizes",
					"outputs": [],
					"stateMutability": "nonpayable",
					"type": "function"
				},
				{
					"inputs": [],
					"name": "mint",
					"outputs": [],
					"stateMutability": "nonpayable",
					"type": "function"
				},
				{
					"inputs": [],
					"name": "startNewRound",
					"outputs": [],
					"stateMutability": "nonpayable",
					"type": "function"
				}
			],
			"devdoc": {
				"kind": "dev",
				"methods": {},
				"version": 1
			},
			"evm": {
				"assembly": "    /* \"Desktop/P2P&BLOCKCHAIN/FinalTerm/contracts/MyContract.sol\":57:1659  contract MyContract{... */\n  mstore(0x40, 0x80)\n    /* \"Desktop/P2P&BLOCKCHAIN/FinalTerm/contracts/MyContract.sol\":421:440  1000000000000000000 */\n  0x0de0b6b3a7640000\n    /* \"Desktop/P2P&BLOCKCHAIN/FinalTerm/contracts/MyContract.sol\":401:440  uint ticket_price = 1000000000000000000 */\n  0x03\n  sstore\n    /* \"Desktop/P2P&BLOCKCHAIN/FinalTerm/contracts/MyContract.sol\":493:497  true */\n  0x01\n    /* \"Desktop/P2P&BLOCKCHAIN/FinalTerm/contracts/MyContract.sol\":484:490  active */\n  0x02\n  0x00\n    /* \"Desktop/P2P&BLOCKCHAIN/FinalTerm/contracts/MyContract.sol\":484:497  active = true */\n  0x0100\n  exp\n  dup2\n  sload\n  dup2\n  0xff\n  mul\n  not\n  and\n  swap1\n  dup4\n  iszero\n  iszero\n  mul\n  or\n  swap1\n  sstore\n  pop\n    /* \"Desktop/P2P&BLOCKCHAIN/FinalTerm/contracts/MyContract.sol\":514:524  msg.sender */\n  caller\n    /* \"Desktop/P2P&BLOCKCHAIN/FinalTerm/contracts/MyContract.sol\":506:511  owner */\n  0x02\n  0x01\n    /* \"Desktop/P2P&BLOCKCHAIN/FinalTerm/contracts/MyContract.sol\":506:524  owner = msg.sender */\n  0x0100\n  exp\n  dup2\n  sload\n  dup2\n  0xffffffffffffffffffffffffffffffffffffffff\n  mul\n  not\n  and\n  swap1\n  dup4\n  0xffffffffffffffffffffffffffffffffffffffff\n  and\n  mul\n  or\n  swap1\n  sstore\n  pop\n    /* \"Desktop/P2P&BLOCKCHAIN/FinalTerm/contracts/MyContract.sol\":555:564  msg.value */\n  callvalue\n    /* \"Desktop/P2P&BLOCKCHAIN/FinalTerm/contracts/MyContract.sol\":533:540  balance */\n  0x00\n    /* \"Desktop/P2P&BLOCKCHAIN/FinalTerm/contracts/MyContract.sol\":533:552  balance[msg.sender] */\n  dup1\n    /* \"Desktop/P2P&BLOCKCHAIN/FinalTerm/contracts/MyContract.sol\":541:551  msg.sender */\n  caller\n    /* \"Desktop/P2P&BLOCKCHAIN/FinalTerm/contracts/MyContract.sol\":533:552  balance[msg.sender] */\n  0xffffffffffffffffffffffffffffffffffffffff\n  and\n  0xffffffffffffffffffffffffffffffffffffffff\n  and\n  dup2\n  mstore\n  0x20\n  add\n  swap1\n  dup2\n  mstore\n  0x20\n  add\n  0x00\n  keccak256\n    /* \"Desktop/P2P&BLOCKCHAIN/FinalTerm/contracts/MyContract.sol\":533:564  balance[msg.sender] = msg.value */\n  dup2\n  swap1\n  sstore\n  pop\n    /* \"Desktop/P2P&BLOCKCHAIN/FinalTerm/contracts/MyContract.sol\":57:1659  contract MyContract{... */\n  dataSize(sub_0)\n  dup1\n  dataOffset(sub_0)\n  0x00\n  codecopy\n  0x00\n  return\nstop\n\nsub_0: assembly {\n        /* \"Desktop/P2P&BLOCKCHAIN/FinalTerm/contracts/MyContract.sol\":57:1659  contract MyContract{... */\n      mstore(0x40, 0x80)\n      jumpi(tag_1, lt(calldatasize, 0x04))\n      shr(0xe0, calldataload(0x00))\n      dup1\n      0x06d5ee54\n      eq\n      tag_2\n      jumpi\n      dup1\n      0x1249c58b\n      eq\n      tag_3\n      jumpi\n      dup1\n      0x676c902f\n      eq\n      tag_4\n      jumpi\n      dup1\n      0x6fd09816\n      eq\n      tag_5\n      jumpi\n      dup1\n      0xbd85948c\n      eq\n      tag_6\n      jumpi\n      dup1\n      0xd6febde8\n      eq\n      tag_7\n      jumpi\n    tag_1:\n      0x00\n      dup1\n      revert\n        /* \"Desktop/P2P&BLOCKCHAIN/FinalTerm/contracts/MyContract.sol\":1447:1491  function givePrizes() public{... */\n    tag_2:\n      callvalue\n      dup1\n      iszero\n      tag_8\n      jumpi\n      0x00\n      dup1\n      revert\n    tag_8:\n      pop\n      tag_9\n      tag_10\n      jump\t// in\n    tag_9:\n      stop\n        /* \"Desktop/P2P&BLOCKCHAIN/FinalTerm/contracts/MyContract.sol\":1497:1527  function mint() public{... */\n    tag_3:\n      callvalue\n      dup1\n      iszero\n      tag_11\n      jumpi\n      0x00\n      dup1\n      revert\n    tag_11:\n      pop\n      tag_12\n      tag_13\n      jump\t// in\n    tag_12:\n      stop\n        /* \"Desktop/P2P&BLOCKCHAIN/FinalTerm/contracts/MyContract.sol\":1361:1441  function drawNumbers() public{... */\n    tag_4:\n      callvalue\n      dup1\n      iszero\n      tag_14\n      jumpi\n      0x00\n      dup1\n      revert\n    tag_14:\n      pop\n      tag_15\n      tag_16\n      jump\t// in\n    tag_15:\n      stop\n        /* \"Desktop/P2P&BLOCKCHAIN/FinalTerm/contracts/MyContract.sol\":1533:1657  function closeLottery() public{... */\n    tag_5:\n      callvalue\n      dup1\n      iszero\n      tag_17\n      jumpi\n      0x00\n      dup1\n      revert\n    tag_17:\n      pop\n      tag_18\n      tag_19\n      jump\t// in\n    tag_18:\n      stop\n        /* \"Desktop/P2P&BLOCKCHAIN/FinalTerm/contracts/MyContract.sol\":577:670  function startNewRound() public{... */\n    tag_6:\n      callvalue\n      dup1\n      iszero\n      tag_20\n      jumpi\n      0x00\n      dup1\n      revert\n    tag_20:\n      pop\n      tag_21\n      tag_22\n      jump\t// in\n    tag_21:\n      stop\n        /* \"Desktop/P2P&BLOCKCHAIN/FinalTerm/contracts/MyContract.sol\":676:1355  function buy(uint _numbers, uint _powerball) public payable returns(bool){... */\n    tag_7:\n      tag_23\n      0x04\n      dup1\n      calldatasize\n      sub\n      dup2\n      add\n      swap1\n      tag_24\n      swap2\n      swap1\n      tag_25\n      jump\t// in\n    tag_24:\n      tag_26\n      jump\t// in\n    tag_23:\n      mload(0x40)\n      tag_27\n      swap2\n      swap1\n      tag_28\n      jump\t// in\n    tag_27:\n      mload(0x40)\n      dup1\n      swap2\n      sub\n      swap1\n      return\n        /* \"Desktop/P2P&BLOCKCHAIN/FinalTerm/contracts/MyContract.sol\":1447:1491  function givePrizes() public{... */\n    tag_10:\n      jump\t// out\n        /* \"Desktop/P2P&BLOCKCHAIN/FinalTerm/contracts/MyContract.sol\":1497:1527  function mint() public{... */\n    tag_13:\n      jump\t// out\n        /* \"Desktop/P2P&BLOCKCHAIN/FinalTerm/contracts/MyContract.sol\":1361:1441  function drawNumbers() public{... */\n    tag_16:\n      jump\t// out\n        /* \"Desktop/P2P&BLOCKCHAIN/FinalTerm/contracts/MyContract.sol\":1533:1657  function closeLottery() public{... */\n    tag_19:\n        /* \"Desktop/P2P&BLOCKCHAIN/FinalTerm/contracts/MyContract.sol\":1586:1590  true */\n      0x01\n        /* \"Desktop/P2P&BLOCKCHAIN/FinalTerm/contracts/MyContract.sol\":1576:1590  active == true */\n      iszero\n      iszero\n        /* \"Desktop/P2P&BLOCKCHAIN/FinalTerm/contracts/MyContract.sol\":1576:1582  active */\n      0x02\n      0x00\n      swap1\n      sload\n      swap1\n      0x0100\n      exp\n      swap1\n      div\n      0xff\n      and\n        /* \"Desktop/P2P&BLOCKCHAIN/FinalTerm/contracts/MyContract.sol\":1576:1590  active == true */\n      iszero\n      iszero\n      sub\n        /* \"Desktop/P2P&BLOCKCHAIN/FinalTerm/contracts/MyContract.sol\":1573:1618  if(active == true)... */\n      tag_33\n      jumpi\n        /* \"Desktop/P2P&BLOCKCHAIN/FinalTerm/contracts/MyContract.sol\":1613:1618  false */\n      0x00\n        /* \"Desktop/P2P&BLOCKCHAIN/FinalTerm/contracts/MyContract.sol\":1604:1610  active */\n      0x02\n      0x00\n        /* \"Desktop/P2P&BLOCKCHAIN/FinalTerm/contracts/MyContract.sol\":1604:1618  active = false */\n      0x0100\n      exp\n      dup2\n      sload\n      dup2\n      0xff\n      mul\n      not\n      and\n      swap1\n      dup4\n      iszero\n      iszero\n      mul\n      or\n      swap1\n      sstore\n      pop\n        /* \"Desktop/P2P&BLOCKCHAIN/FinalTerm/contracts/MyContract.sol\":1573:1618  if(active == true)... */\n    tag_33:\n        /* \"Desktop/P2P&BLOCKCHAIN/FinalTerm/contracts/MyContract.sol\":1533:1657  function closeLottery() public{... */\n      jump\t// out\n        /* \"Desktop/P2P&BLOCKCHAIN/FinalTerm/contracts/MyContract.sol\":577:670  function startNewRound() public{... */\n    tag_22:\n        /* \"Desktop/P2P&BLOCKCHAIN/FinalTerm/contracts/MyContract.sol\":631:636  false */\n      0x00\n        /* \"Desktop/P2P&BLOCKCHAIN/FinalTerm/contracts/MyContract.sol\":621:636  active == false */\n      iszero\n      iszero\n        /* \"Desktop/P2P&BLOCKCHAIN/FinalTerm/contracts/MyContract.sol\":621:627  active */\n      0x02\n      0x00\n      swap1\n      sload\n      swap1\n      0x0100\n      exp\n      swap1\n      div\n      0xff\n      and\n        /* \"Desktop/P2P&BLOCKCHAIN/FinalTerm/contracts/MyContract.sol\":621:636  active == false */\n      iszero\n      iszero\n      sub\n        /* \"Desktop/P2P&BLOCKCHAIN/FinalTerm/contracts/MyContract.sol\":618:663  if(active == false)... */\n      tag_35\n      jumpi\n        /* \"Desktop/P2P&BLOCKCHAIN/FinalTerm/contracts/MyContract.sol\":659:663  true */\n      0x01\n        /* \"Desktop/P2P&BLOCKCHAIN/FinalTerm/contracts/MyContract.sol\":650:656  active */\n      0x02\n      0x00\n        /* \"Desktop/P2P&BLOCKCHAIN/FinalTerm/contracts/MyContract.sol\":650:663  active = true */\n      0x0100\n      exp\n      dup2\n      sload\n      dup2\n      0xff\n      mul\n      not\n      and\n      swap1\n      dup4\n      iszero\n      iszero\n      mul\n      or\n      swap1\n      sstore\n      pop\n        /* \"Desktop/P2P&BLOCKCHAIN/FinalTerm/contracts/MyContract.sol\":618:663  if(active == false)... */\n    tag_35:\n        /* \"Desktop/P2P&BLOCKCHAIN/FinalTerm/contracts/MyContract.sol\":577:670  function startNewRound() public{... */\n      jump\t// out\n        /* \"Desktop/P2P&BLOCKCHAIN/FinalTerm/contracts/MyContract.sol\":676:1355  function buy(uint _numbers, uint _powerball) public payable returns(bool){... */\n    tag_26:\n        /* \"Desktop/P2P&BLOCKCHAIN/FinalTerm/contracts/MyContract.sol\":744:748  bool */\n      0x00\n        /* \"Desktop/P2P&BLOCKCHAIN/FinalTerm/contracts/MyContract.sol\":778:782  true */\n      0x01\n        /* \"Desktop/P2P&BLOCKCHAIN/FinalTerm/contracts/MyContract.sol\":768:782  active == true */\n      iszero\n      iszero\n        /* \"Desktop/P2P&BLOCKCHAIN/FinalTerm/contracts/MyContract.sol\":768:774  active */\n      0x02\n      0x00\n      swap1\n      sload\n      swap1\n      0x0100\n      exp\n      swap1\n      div\n      0xff\n      and\n        /* \"Desktop/P2P&BLOCKCHAIN/FinalTerm/contracts/MyContract.sol\":768:782  active == true */\n      iszero\n      iszero\n      eq\n        /* \"Desktop/P2P&BLOCKCHAIN/FinalTerm/contracts/MyContract.sol\":760:801  require(active == true, \"Lottery closed\") */\n      tag_37\n      jumpi\n      mload(0x40)\n      0x08c379a000000000000000000000000000000000000000000000000000000000\n      dup2\n      mstore\n      0x04\n      add\n      tag_38\n      swap1\n      tag_39\n      jump\t// in\n    tag_38:\n      mload(0x40)\n      dup1\n      swap2\n      sub\n      swap1\n      revert\n    tag_37:\n        /* \"Desktop/P2P&BLOCKCHAIN/FinalTerm/contracts/MyContract.sol\":833:838  owner */\n      0x02\n      0x01\n      swap1\n      sload\n      swap1\n      0x0100\n      exp\n      swap1\n      div\n      0xffffffffffffffffffffffffffffffffffffffff\n      and\n        /* \"Desktop/P2P&BLOCKCHAIN/FinalTerm/contracts/MyContract.sol\":819:838  msg.sender == owner */\n      0xffffffffffffffffffffffffffffffffffffffff\n      and\n        /* \"Desktop/P2P&BLOCKCHAIN/FinalTerm/contracts/MyContract.sol\":819:829  msg.sender */\n      caller\n        /* \"Desktop/P2P&BLOCKCHAIN/FinalTerm/contracts/MyContract.sol\":819:838  msg.sender == owner */\n      0xffffffffffffffffffffffffffffffffffffffff\n      and\n      eq\n        /* \"Desktop/P2P&BLOCKCHAIN/FinalTerm/contracts/MyContract.sol\":811:839  require(msg.sender == owner) */\n      tag_40\n      jumpi\n      0x00\n      dup1\n      revert\n    tag_40:\n        /* \"Desktop/P2P&BLOCKCHAIN/FinalTerm/contracts/MyContract.sol\":1108:1118  uint money */\n      0x00\n        /* \"Desktop/P2P&BLOCKCHAIN/FinalTerm/contracts/MyContract.sol\":1121:1130  msg.value */\n      callvalue\n        /* \"Desktop/P2P&BLOCKCHAIN/FinalTerm/contracts/MyContract.sol\":1108:1130  uint money = msg.value */\n      swap1\n      pop\n        /* \"Desktop/P2P&BLOCKCHAIN/FinalTerm/contracts/MyContract.sol\":1158:1170  ticket_price */\n      sload(0x03)\n        /* \"Desktop/P2P&BLOCKCHAIN/FinalTerm/contracts/MyContract.sol\":1149:1154  money */\n      dup2\n        /* \"Desktop/P2P&BLOCKCHAIN/FinalTerm/contracts/MyContract.sol\":1149:1170  money >= ticket_price */\n      lt\n      iszero\n        /* \"Desktop/P2P&BLOCKCHAIN/FinalTerm/contracts/MyContract.sol\":1141:1190  require(money >= ticket_price, \"Value too small\") */\n      tag_41\n      jumpi\n      mload(0x40)\n      0x08c379a000000000000000000000000000000000000000000000000000000000\n      dup2\n      mstore\n      0x04\n      add\n      tag_42\n      swap1\n      tag_43\n      jump\t// in\n    tag_42:\n      mload(0x40)\n      dup1\n      swap2\n      sub\n      swap1\n      revert\n    tag_41:\n        /* \"Desktop/P2P&BLOCKCHAIN/FinalTerm/contracts/MyContract.sol\":1251:1263  ticket_price */\n      sload(0x03)\n        /* \"Desktop/P2P&BLOCKCHAIN/FinalTerm/contracts/MyContract.sol\":1243:1248  money */\n      dup2\n        /* \"Desktop/P2P&BLOCKCHAIN/FinalTerm/contracts/MyContract.sol\":1243:1263  money > ticket_price */\n      gt\n        /* \"Desktop/P2P&BLOCKCHAIN/FinalTerm/contracts/MyContract.sol\":1240:1326  if(money > ticket_price)... */\n      iszero\n      tag_44\n      jumpi\n        /* \"Desktop/P2P&BLOCKCHAIN/FinalTerm/contracts/MyContract.sol\":1285:1290  owner */\n      0x02\n      0x01\n      swap1\n      sload\n      swap1\n      0x0100\n      exp\n      swap1\n      div\n      0xffffffffffffffffffffffffffffffffffffffff\n      and\n        /* \"Desktop/P2P&BLOCKCHAIN/FinalTerm/contracts/MyContract.sol\":1277:1300  payable(owner).transfer */\n      0xffffffffffffffffffffffffffffffffffffffff\n      and\n        /* \"Desktop/P2P&BLOCKCHAIN/FinalTerm/contracts/MyContract.sol\":1277:1326  payable(owner).transfer(msg.value - ticket_price) */\n      0x08fc\n        /* \"Desktop/P2P&BLOCKCHAIN/FinalTerm/contracts/MyContract.sol\":1313:1325  ticket_price */\n      sload(0x03)\n        /* \"Desktop/P2P&BLOCKCHAIN/FinalTerm/contracts/MyContract.sol\":1301:1310  msg.value */\n      callvalue\n        /* \"Desktop/P2P&BLOCKCHAIN/FinalTerm/contracts/MyContract.sol\":1301:1325  msg.value - ticket_price */\n      tag_45\n      swap2\n      swap1\n      tag_46\n      jump\t// in\n    tag_45:\n        /* \"Desktop/P2P&BLOCKCHAIN/FinalTerm/contracts/MyContract.sol\":1277:1326  payable(owner).transfer(msg.value - ticket_price) */\n      swap1\n      dup2\n      iszero\n      mul\n      swap1\n      mload(0x40)\n      0x00\n      mload(0x40)\n      dup1\n      dup4\n      sub\n      dup2\n      dup6\n      dup9\n      dup9\n      call\n      swap4\n      pop\n      pop\n      pop\n      pop\n      iszero\n      dup1\n      iszero\n      tag_48\n      jumpi\n      returndatasize\n      0x00\n      dup1\n      returndatacopy\n      revert(0x00, returndatasize)\n    tag_48:\n      pop\n        /* \"Desktop/P2P&BLOCKCHAIN/FinalTerm/contracts/MyContract.sol\":1240:1326  if(money > ticket_price)... */\n    tag_44:\n        /* \"Desktop/P2P&BLOCKCHAIN/FinalTerm/contracts/MyContract.sol\":1344:1348  true */\n      0x01\n        /* \"Desktop/P2P&BLOCKCHAIN/FinalTerm/contracts/MyContract.sol\":1337:1348  return true */\n      swap2\n      pop\n      pop\n        /* \"Desktop/P2P&BLOCKCHAIN/FinalTerm/contracts/MyContract.sol\":676:1355  function buy(uint _numbers, uint _powerball) public payable returns(bool){... */\n      swap3\n      swap2\n      pop\n      pop\n      jump\t// out\n        /* \"#utility.yul\":88:205   */\n    tag_50:\n        /* \"#utility.yul\":197:198   */\n      0x00\n        /* \"#utility.yul\":194:195   */\n      dup1\n        /* \"#utility.yul\":187:199   */\n      revert\n        /* \"#utility.yul\":334:411   */\n    tag_52:\n        /* \"#utility.yul\":371:378   */\n      0x00\n        /* \"#utility.yul\":400:405   */\n      dup2\n        /* \"#utility.yul\":389:405   */\n      swap1\n      pop\n        /* \"#utility.yul\":334:411   */\n      swap2\n      swap1\n      pop\n      jump\t// out\n        /* \"#utility.yul\":417:539   */\n    tag_53:\n        /* \"#utility.yul\":490:514   */\n      tag_69\n        /* \"#utility.yul\":508:513   */\n      dup2\n        /* \"#utility.yul\":490:514   */\n      tag_52\n      jump\t// in\n    tag_69:\n        /* \"#utility.yul\":483:488   */\n      dup2\n        /* \"#utility.yul\":480:515   */\n      eq\n        /* \"#utility.yul\":470:533   */\n      tag_70\n      jumpi\n        /* \"#utility.yul\":529:530   */\n      0x00\n        /* \"#utility.yul\":526:527   */\n      dup1\n        /* \"#utility.yul\":519:531   */\n      revert\n        /* \"#utility.yul\":470:533   */\n    tag_70:\n        /* \"#utility.yul\":417:539   */\n      pop\n      jump\t// out\n        /* \"#utility.yul\":545:684   */\n    tag_54:\n        /* \"#utility.yul\":591:596   */\n      0x00\n        /* \"#utility.yul\":629:635   */\n      dup2\n        /* \"#utility.yul\":616:636   */\n      calldataload\n        /* \"#utility.yul\":607:636   */\n      swap1\n      pop\n        /* \"#utility.yul\":645:678   */\n      tag_72\n        /* \"#utility.yul\":672:677   */\n      dup2\n        /* \"#utility.yul\":645:678   */\n      tag_53\n      jump\t// in\n    tag_72:\n        /* \"#utility.yul\":545:684   */\n      swap3\n      swap2\n      pop\n      pop\n      jump\t// out\n        /* \"#utility.yul\":690:1164   */\n    tag_25:\n        /* \"#utility.yul\":758:764   */\n      0x00\n        /* \"#utility.yul\":766:772   */\n      dup1\n        /* \"#utility.yul\":815:817   */\n      0x40\n        /* \"#utility.yul\":803:812   */\n      dup4\n        /* \"#utility.yul\":794:801   */\n      dup6\n        /* \"#utility.yul\":790:813   */\n      sub\n        /* \"#utility.yul\":786:818   */\n      slt\n        /* \"#utility.yul\":783:902   */\n      iszero\n      tag_74\n      jumpi\n        /* \"#utility.yul\":821:900   */\n      tag_75\n      tag_50\n      jump\t// in\n    tag_75:\n        /* \"#utility.yul\":783:902   */\n    tag_74:\n        /* \"#utility.yul\":941:942   */\n      0x00\n        /* \"#utility.yul\":966:1019   */\n      tag_76\n        /* \"#utility.yul\":1011:1018   */\n      dup6\n        /* \"#utility.yul\":1002:1008   */\n      dup3\n        /* \"#utility.yul\":991:1000   */\n      dup7\n        /* \"#utility.yul\":987:1009   */\n      add\n        /* \"#utility.yul\":966:1019   */\n      tag_54\n      jump\t// in\n    tag_76:\n        /* \"#utility.yul\":956:1019   */\n      swap3\n      pop\n        /* \"#utility.yul\":912:1029   */\n      pop\n        /* \"#utility.yul\":1068:1070   */\n      0x20\n        /* \"#utility.yul\":1094:1147   */\n      tag_77\n        /* \"#utility.yul\":1139:1146   */\n      dup6\n        /* \"#utility.yul\":1130:1136   */\n      dup3\n        /* \"#utility.yul\":1119:1128   */\n      dup7\n        /* \"#utility.yul\":1115:1137   */\n      add\n        /* \"#utility.yul\":1094:1147   */\n      tag_54\n      jump\t// in\n    tag_77:\n        /* \"#utility.yul\":1084:1147   */\n      swap2\n      pop\n        /* \"#utility.yul\":1039:1157   */\n      pop\n        /* \"#utility.yul\":690:1164   */\n      swap3\n      pop\n      swap3\n      swap1\n      pop\n      jump\t// out\n        /* \"#utility.yul\":1170:1260   */\n    tag_55:\n        /* \"#utility.yul\":1204:1211   */\n      0x00\n        /* \"#utility.yul\":1247:1252   */\n      dup2\n        /* \"#utility.yul\":1240:1253   */\n      iszero\n        /* \"#utility.yul\":1233:1254   */\n      iszero\n        /* \"#utility.yul\":1222:1254   */\n      swap1\n      pop\n        /* \"#utility.yul\":1170:1260   */\n      swap2\n      swap1\n      pop\n      jump\t// out\n        /* \"#utility.yul\":1266:1375   */\n    tag_56:\n        /* \"#utility.yul\":1347:1368   */\n      tag_80\n        /* \"#utility.yul\":1362:1367   */\n      dup2\n        /* \"#utility.yul\":1347:1368   */\n      tag_55\n      jump\t// in\n    tag_80:\n        /* \"#utility.yul\":1342:1345   */\n      dup3\n        /* \"#utility.yul\":1335:1369   */\n      mstore\n        /* \"#utility.yul\":1266:1375   */\n      pop\n      pop\n      jump\t// out\n        /* \"#utility.yul\":1381:1591   */\n    tag_28:\n        /* \"#utility.yul\":1468:1472   */\n      0x00\n        /* \"#utility.yul\":1506:1508   */\n      0x20\n        /* \"#utility.yul\":1495:1504   */\n      dup3\n        /* \"#utility.yul\":1491:1509   */\n      add\n        /* \"#utility.yul\":1483:1509   */\n      swap1\n      pop\n        /* \"#utility.yul\":1519:1584   */\n      tag_82\n        /* \"#utility.yul\":1581:1582   */\n      0x00\n        /* \"#utility.yul\":1570:1579   */\n      dup4\n        /* \"#utility.yul\":1566:1583   */\n      add\n        /* \"#utility.yul\":1557:1563   */\n      dup5\n        /* \"#utility.yul\":1519:1584   */\n      tag_56\n      jump\t// in\n    tag_82:\n        /* \"#utility.yul\":1381:1591   */\n      swap3\n      swap2\n      pop\n      pop\n      jump\t// out\n        /* \"#utility.yul\":1597:1766   */\n    tag_57:\n        /* \"#utility.yul\":1681:1692   */\n      0x00\n        /* \"#utility.yul\":1715:1721   */\n      dup3\n        /* \"#utility.yul\":1710:1713   */\n      dup3\n        /* \"#utility.yul\":1703:1722   */\n      mstore\n        /* \"#utility.yul\":1755:1759   */\n      0x20\n        /* \"#utility.yul\":1750:1753   */\n      dup3\n        /* \"#utility.yul\":1746:1760   */\n      add\n        /* \"#utility.yul\":1731:1760   */\n      swap1\n      pop\n        /* \"#utility.yul\":1597:1766   */\n      swap3\n      swap2\n      pop\n      pop\n      jump\t// out\n        /* \"#utility.yul\":1772:1936   */\n    tag_58:\n        /* \"#utility.yul\":1912:1928   */\n      0x4c6f747465727920636c6f736564000000000000000000000000000000000000\n        /* \"#utility.yul\":1908:1909   */\n      0x00\n        /* \"#utility.yul\":1900:1906   */\n      dup3\n        /* \"#utility.yul\":1896:1910   */\n      add\n        /* \"#utility.yul\":1889:1929   */\n      mstore\n        /* \"#utility.yul\":1772:1936   */\n      pop\n      jump\t// out\n        /* \"#utility.yul\":1942:2308   */\n    tag_59:\n        /* \"#utility.yul\":2084:2087   */\n      0x00\n        /* \"#utility.yul\":2105:2172   */\n      tag_86\n        /* \"#utility.yul\":2169:2171   */\n      0x0e\n        /* \"#utility.yul\":2164:2167   */\n      dup4\n        /* \"#utility.yul\":2105:2172   */\n      tag_57\n      jump\t// in\n    tag_86:\n        /* \"#utility.yul\":2098:2172   */\n      swap2\n      pop\n        /* \"#utility.yul\":2181:2274   */\n      tag_87\n        /* \"#utility.yul\":2270:2273   */\n      dup3\n        /* \"#utility.yul\":2181:2274   */\n      tag_58\n      jump\t// in\n    tag_87:\n        /* \"#utility.yul\":2299:2301   */\n      0x20\n        /* \"#utility.yul\":2294:2297   */\n      dup3\n        /* \"#utility.yul\":2290:2302   */\n      add\n        /* \"#utility.yul\":2283:2302   */\n      swap1\n      pop\n        /* \"#utility.yul\":1942:2308   */\n      swap2\n      swap1\n      pop\n      jump\t// out\n        /* \"#utility.yul\":2314:2733   */\n    tag_39:\n        /* \"#utility.yul\":2480:2484   */\n      0x00\n        /* \"#utility.yul\":2518:2520   */\n      0x20\n        /* \"#utility.yul\":2507:2516   */\n      dup3\n        /* \"#utility.yul\":2503:2521   */\n      add\n        /* \"#utility.yul\":2495:2521   */\n      swap1\n      pop\n        /* \"#utility.yul\":2567:2576   */\n      dup2\n        /* \"#utility.yul\":2561:2565   */\n      dup2\n        /* \"#utility.yul\":2557:2577   */\n      sub\n        /* \"#utility.yul\":2553:2554   */\n      0x00\n        /* \"#utility.yul\":2542:2551   */\n      dup4\n        /* \"#utility.yul\":2538:2555   */\n      add\n        /* \"#utility.yul\":2531:2578   */\n      mstore\n        /* \"#utility.yul\":2595:2726   */\n      tag_89\n        /* \"#utility.yul\":2721:2725   */\n      dup2\n        /* \"#utility.yul\":2595:2726   */\n      tag_59\n      jump\t// in\n    tag_89:\n        /* \"#utility.yul\":2587:2726   */\n      swap1\n      pop\n        /* \"#utility.yul\":2314:2733   */\n      swap2\n      swap1\n      pop\n      jump\t// out\n        /* \"#utility.yul\":2739:2904   */\n    tag_60:\n        /* \"#utility.yul\":2879:2896   */\n      0x56616c756520746f6f20736d616c6c0000000000000000000000000000000000\n        /* \"#utility.yul\":2875:2876   */\n      0x00\n        /* \"#utility.yul\":2867:2873   */\n      dup3\n        /* \"#utility.yul\":2863:2877   */\n      add\n        /* \"#utility.yul\":2856:2897   */\n      mstore\n        /* \"#utility.yul\":2739:2904   */\n      pop\n      jump\t// out\n        /* \"#utility.yul\":2910:3276   */\n    tag_61:\n        /* \"#utility.yul\":3052:3055   */\n      0x00\n        /* \"#utility.yul\":3073:3140   */\n      tag_92\n        /* \"#utility.yul\":3137:3139   */\n      0x0f\n        /* \"#utility.yul\":3132:3135   */\n      dup4\n        /* \"#utility.yul\":3073:3140   */\n      tag_57\n      jump\t// in\n    tag_92:\n        /* \"#utility.yul\":3066:3140   */\n      swap2\n      pop\n        /* \"#utility.yul\":3149:3242   */\n      tag_93\n        /* \"#utility.yul\":3238:3241   */\n      dup3\n        /* \"#utility.yul\":3149:3242   */\n      tag_60\n      jump\t// in\n    tag_93:\n        /* \"#utility.yul\":3267:3269   */\n      0x20\n        /* \"#utility.yul\":3262:3265   */\n      dup3\n        /* \"#utility.yul\":3258:3270   */\n      add\n        /* \"#utility.yul\":3251:3270   */\n      swap1\n      pop\n        /* \"#utility.yul\":2910:3276   */\n      swap2\n      swap1\n      pop\n      jump\t// out\n        /* \"#utility.yul\":3282:3701   */\n    tag_43:\n        /* \"#utility.yul\":3448:3452   */\n      0x00\n        /* \"#utility.yul\":3486:3488   */\n      0x20\n        /* \"#utility.yul\":3475:3484   */\n      dup3\n        /* \"#utility.yul\":3471:3489   */\n      add\n        /* \"#utility.yul\":3463:3489   */\n      swap1\n      pop\n        /* \"#utility.yul\":3535:3544   */\n      dup2\n        /* \"#utility.yul\":3529:3533   */\n      dup2\n        /* \"#utility.yul\":3525:3545   */\n      sub\n        /* \"#utility.yul\":3521:3522   */\n      0x00\n        /* \"#utility.yul\":3510:3519   */\n      dup4\n        /* \"#utility.yul\":3506:3523   */\n      add\n        /* \"#utility.yul\":3499:3546   */\n      mstore\n        /* \"#utility.yul\":3563:3694   */\n      tag_95\n        /* \"#utility.yul\":3689:3693   */\n      dup2\n        /* \"#utility.yul\":3563:3694   */\n      tag_61\n      jump\t// in\n    tag_95:\n        /* \"#utility.yul\":3555:3694   */\n      swap1\n      pop\n        /* \"#utility.yul\":3282:3701   */\n      swap2\n      swap1\n      pop\n      jump\t// out\n        /* \"#utility.yul\":3707:3887   */\n    tag_62:\n        /* \"#utility.yul\":3755:3832   */\n      0x4e487b7100000000000000000000000000000000000000000000000000000000\n        /* \"#utility.yul\":3752:3753   */\n      0x00\n        /* \"#utility.yul\":3745:3833   */\n      mstore\n        /* \"#utility.yul\":3852:3856   */\n      0x11\n        /* \"#utility.yul\":3849:3850   */\n      0x04\n        /* \"#utility.yul\":3842:3857   */\n      mstore\n        /* \"#utility.yul\":3876:3880   */\n      0x24\n        /* \"#utility.yul\":3873:3874   */\n      0x00\n        /* \"#utility.yul\":3866:3881   */\n      revert\n        /* \"#utility.yul\":3893:4084   */\n    tag_46:\n        /* \"#utility.yul\":3933:3937   */\n      0x00\n        /* \"#utility.yul\":3953:3973   */\n      tag_98\n        /* \"#utility.yul\":3971:3972   */\n      dup3\n        /* \"#utility.yul\":3953:3973   */\n      tag_52\n      jump\t// in\n    tag_98:\n        /* \"#utility.yul\":3948:3973   */\n      swap2\n      pop\n        /* \"#utility.yul\":3987:4007   */\n      tag_99\n        /* \"#utility.yul\":4005:4006   */\n      dup4\n        /* \"#utility.yul\":3987:4007   */\n      tag_52\n      jump\t// in\n    tag_99:\n        /* \"#utility.yul\":3982:4007   */\n      swap3\n      pop\n        /* \"#utility.yul\":4026:4027   */\n      dup3\n        /* \"#utility.yul\":4023:4024   */\n      dup3\n        /* \"#utility.yul\":4020:4028   */\n      lt\n        /* \"#utility.yul\":4017:4051   */\n      iszero\n      tag_100\n      jumpi\n        /* \"#utility.yul\":4031:4049   */\n      tag_101\n      tag_62\n      jump\t// in\n    tag_101:\n        /* \"#utility.yul\":4017:4051   */\n    tag_100:\n        /* \"#utility.yul\":4076:4077   */\n      dup3\n        /* \"#utility.yul\":4073:4074   */\n      dup3\n        /* \"#utility.yul\":4069:4078   */\n      sub\n        /* \"#utility.yul\":4061:4078   */\n      swap1\n      pop\n        /* \"#utility.yul\":3893:4084   */\n      swap3\n      swap2\n      pop\n      pop\n      jump\t// out\n\n    auxdata: 0xa26469706673582212200b0dd66160891afe858bfe37de37739ec6d3fb9789fc91c1c521d602891031f064736f6c634300080d0033\n}\n",
				"bytecode": {
					"linkReferences": {},
					"object": "6080604052670de0b6b3a76400006003556001600260006101000a81548160ff02191690831515021790555033600260016101000a81548173ffffffffffffffffffffffffffffffffffffffff021916908373ffffffffffffffffffffffffffffffffffffffff160217905550346000803373ffffffffffffffffffffffffffffffffffffffff1673ffffffffffffffffffffffffffffffffffffffff16815260200190815260200160002081905550610530806100be6000396000f3fe6080604052600436106100555760003560e01c806306d5ee541461005a5780631249c58b14610071578063676c902f146100885780636fd098161461009f578063bd85948c146100b6578063d6febde8146100cd575b600080fd5b34801561006657600080fd5b5061006f6100fd565b005b34801561007d57600080fd5b506100866100ff565b005b34801561009457600080fd5b5061009d610101565b005b3480156100ab57600080fd5b506100b4610103565b005b3480156100c257600080fd5b506100cb61013c565b005b6100e760048036038101906100e29190610338565b610175565b6040516100f49190610393565b60405180910390f35b565b565b565b60011515600260009054906101000a900460ff1615150361013a576000600260006101000a81548160ff0219169083151502179055505b565b60001515600260009054906101000a900460ff16151503610173576001600260006101000a81548160ff0219169083151502179055505b565b600060011515600260009054906101000a900460ff161515146101cd576040517f08c379a00000000000000000000000000000000000000000000000000000000081526004016101c49061040b565b60405180910390fd5b600260019054906101000a900473ffffffffffffffffffffffffffffffffffffffff1673ffffffffffffffffffffffffffffffffffffffff163373ffffffffffffffffffffffffffffffffffffffff161461022757600080fd5b6000349050600354811015610271576040517f08c379a000000000000000000000000000000000000000000000000000000000815260040161026890610477565b60405180910390fd5b6003548111156102f257600260019054906101000a900473ffffffffffffffffffffffffffffffffffffffff1673ffffffffffffffffffffffffffffffffffffffff166108fc600354346102c591906104c6565b9081150290604051600060405180830381858888f193505050501580156102f0573d6000803e3d6000fd5b505b600191505092915050565b600080fd5b6000819050919050565b61031581610302565b811461032057600080fd5b50565b6000813590506103328161030c565b92915050565b6000806040838503121561034f5761034e6102fd565b5b600061035d85828601610323565b925050602061036e85828601610323565b9150509250929050565b60008115159050919050565b61038d81610378565b82525050565b60006020820190506103a86000830184610384565b92915050565b600082825260208201905092915050565b7f4c6f747465727920636c6f736564000000000000000000000000000000000000600082015250565b60006103f5600e836103ae565b9150610400826103bf565b602082019050919050565b60006020820190508181036000830152610424816103e8565b9050919050565b7f56616c756520746f6f20736d616c6c0000000000000000000000000000000000600082015250565b6000610461600f836103ae565b915061046c8261042b565b602082019050919050565b6000602082019050818103600083015261049081610454565b9050919050565b7f4e487b7100000000000000000000000000000000000000000000000000000000600052601160045260246000fd5b60006104d182610302565b91506104dc83610302565b9250828210156104ef576104ee610497565b5b82820390509291505056fea26469706673582212200b0dd66160891afe858bfe37de37739ec6d3fb9789fc91c1c521d602891031f064736f6c634300080d0033",
					"opcodes": "PUSH1 0x80 PUSH1 0x40 MSTORE PUSH8 0xDE0B6B3A7640000 PUSH1 0x3 SSTORE PUSH1 0x1 PUSH1 0x2 PUSH1 0x0 PUSH2 0x100 EXP DUP2 SLOAD DUP2 PUSH1 0xFF MUL NOT AND SWAP1 DUP4 ISZERO ISZERO MUL OR SWAP1 SSTORE POP CALLER PUSH1 0x2 PUSH1 0x1 PUSH2 0x100 EXP DUP2 SLOAD DUP2 PUSH20 0xFFFFFFFFFFFFFFFFFFFFFFFFFFFFFFFFFFFFFFFF MUL NOT AND SWAP1 DUP4 PUSH20 0xFFFFFFFFFFFFFFFFFFFFFFFFFFFFFFFFFFFFFFFF AND MUL OR SWAP1 SSTORE POP CALLVALUE PUSH1 0x0 DUP1 CALLER PUSH20 0xFFFFFFFFFFFFFFFFFFFFFFFFFFFFFFFFFFFFFFFF AND PUSH20 0xFFFFFFFFFFFFFFFFFFFFFFFFFFFFFFFFFFFFFFFF AND DUP2 MSTORE PUSH1 0x20 ADD SWAP1 DUP2 MSTORE PUSH1 0x20 ADD PUSH1 0x0 KECCAK256 DUP2 SWAP1 SSTORE POP PUSH2 0x530 DUP1 PUSH2 0xBE PUSH1 0x0 CODECOPY PUSH1 0x0 RETURN INVALID PUSH1 0x80 PUSH1 0x40 MSTORE PUSH1 0x4 CALLDATASIZE LT PUSH2 0x55 JUMPI PUSH1 0x0 CALLDATALOAD PUSH1 0xE0 SHR DUP1 PUSH4 0x6D5EE54 EQ PUSH2 0x5A JUMPI DUP1 PUSH4 0x1249C58B EQ PUSH2 0x71 JUMPI DUP1 PUSH4 0x676C902F EQ PUSH2 0x88 JUMPI DUP1 PUSH4 0x6FD09816 EQ PUSH2 0x9F JUMPI DUP1 PUSH4 0xBD85948C EQ PUSH2 0xB6 JUMPI DUP1 PUSH4 0xD6FEBDE8 EQ PUSH2 0xCD JUMPI JUMPDEST PUSH1 0x0 DUP1 REVERT JUMPDEST CALLVALUE DUP1 ISZERO PUSH2 0x66 JUMPI PUSH1 0x0 DUP1 REVERT JUMPDEST POP PUSH2 0x6F PUSH2 0xFD JUMP JUMPDEST STOP JUMPDEST CALLVALUE DUP1 ISZERO PUSH2 0x7D JUMPI PUSH1 0x0 DUP1 REVERT JUMPDEST POP PUSH2 0x86 PUSH2 0xFF JUMP JUMPDEST STOP JUMPDEST CALLVALUE DUP1 ISZERO PUSH2 0x94 JUMPI PUSH1 0x0 DUP1 REVERT JUMPDEST POP PUSH2 0x9D PUSH2 0x101 JUMP JUMPDEST STOP JUMPDEST CALLVALUE DUP1 ISZERO PUSH2 0xAB JUMPI PUSH1 0x0 DUP1 REVERT JUMPDEST POP PUSH2 0xB4 PUSH2 0x103 JUMP JUMPDEST STOP JUMPDEST CALLVALUE DUP1 ISZERO PUSH2 0xC2 JUMPI PUSH1 0x0 DUP1 REVERT JUMPDEST POP PUSH2 0xCB PUSH2 0x13C JUMP JUMPDEST STOP JUMPDEST PUSH2 0xE7 PUSH1 0x4 DUP1 CALLDATASIZE SUB DUP2 ADD SWAP1 PUSH2 0xE2 SWAP2 SWAP1 PUSH2 0x338 JUMP JUMPDEST PUSH2 0x175 JUMP JUMPDEST PUSH1 0x40 MLOAD PUSH2 0xF4 SWAP2 SWAP1 PUSH2 0x393 JUMP JUMPDEST PUSH1 0x40 MLOAD DUP1 SWAP2 SUB SWAP1 RETURN JUMPDEST JUMP JUMPDEST JUMP JUMPDEST JUMP JUMPDEST PUSH1 0x1 ISZERO ISZERO PUSH1 0x2 PUSH1 0x0 SWAP1 SLOAD SWAP1 PUSH2 0x100 EXP SWAP1 DIV PUSH1 0xFF AND ISZERO ISZERO SUB PUSH2 0x13A JUMPI PUSH1 0x0 PUSH1 0x2 PUSH1 0x0 PUSH2 0x100 EXP DUP2 SLOAD DUP2 PUSH1 0xFF MUL NOT AND SWAP1 DUP4 ISZERO ISZERO MUL OR SWAP1 SSTORE POP JUMPDEST JUMP JUMPDEST PUSH1 0x0 ISZERO ISZERO PUSH1 0x2 PUSH1 0x0 SWAP1 SLOAD SWAP1 PUSH2 0x100 EXP SWAP1 DIV PUSH1 0xFF AND ISZERO ISZERO SUB PUSH2 0x173 JUMPI PUSH1 0x1 PUSH1 0x2 PUSH1 0x0 PUSH2 0x100 EXP DUP2 SLOAD DUP2 PUSH1 0xFF MUL NOT AND SWAP1 DUP4 ISZERO ISZERO MUL OR SWAP1 SSTORE POP JUMPDEST JUMP JUMPDEST PUSH1 0x0 PUSH1 0x1 ISZERO ISZERO PUSH1 0x2 PUSH1 0x0 SWAP1 SLOAD SWAP1 PUSH2 0x100 EXP SWAP1 DIV PUSH1 0xFF AND ISZERO ISZERO EQ PUSH2 0x1CD JUMPI PUSH1 0x40 MLOAD PUSH32 0x8C379A000000000000000000000000000000000000000000000000000000000 DUP2 MSTORE PUSH1 0x4 ADD PUSH2 0x1C4 SWAP1 PUSH2 0x40B JUMP JUMPDEST PUSH1 0x40 MLOAD DUP1 SWAP2 SUB SWAP1 REVERT JUMPDEST PUSH1 0x2 PUSH1 0x1 SWAP1 SLOAD SWAP1 PUSH2 0x100 EXP SWAP1 DIV PUSH20 0xFFFFFFFFFFFFFFFFFFFFFFFFFFFFFFFFFFFFFFFF AND PUSH20 0xFFFFFFFFFFFFFFFFFFFFFFFFFFFFFFFFFFFFFFFF AND CALLER PUSH20 0xFFFFFFFFFFFFFFFFFFFFFFFFFFFFFFFFFFFFFFFF AND EQ PUSH2 0x227 JUMPI PUSH1 0x0 DUP1 REVERT JUMPDEST PUSH1 0x0 CALLVALUE SWAP1 POP PUSH1 0x3 SLOAD DUP2 LT ISZERO PUSH2 0x271 JUMPI PUSH1 0x40 MLOAD PUSH32 0x8C379A000000000000000000000000000000000000000000000000000000000 DUP2 MSTORE PUSH1 0x4 ADD PUSH2 0x268 SWAP1 PUSH2 0x477 JUMP JUMPDEST PUSH1 0x40 MLOAD DUP1 SWAP2 SUB SWAP1 REVERT JUMPDEST PUSH1 0x3 SLOAD DUP2 GT ISZERO PUSH2 0x2F2 JUMPI PUSH1 0x2 PUSH1 0x1 SWAP1 SLOAD SWAP1 PUSH2 0x100 EXP SWAP1 DIV PUSH20 0xFFFFFFFFFFFFFFFFFFFFFFFFFFFFFFFFFFFFFFFF AND PUSH20 0xFFFFFFFFFFFFFFFFFFFFFFFFFFFFFFFFFFFFFFFF AND PUSH2 0x8FC PUSH1 0x3 SLOAD CALLVALUE PUSH2 0x2C5 SWAP2 SWAP1 PUSH2 0x4C6 JUMP JUMPDEST SWAP1 DUP2 ISZERO MUL SWAP1 PUSH1 0x40 MLOAD PUSH1 0x0 PUSH1 0x40 MLOAD DUP1 DUP4 SUB DUP2 DUP6 DUP9 DUP9 CALL SWAP4 POP POP POP POP ISZERO DUP1 ISZERO PUSH2 0x2F0 JUMPI RETURNDATASIZE PUSH1 0x0 DUP1 RETURNDATACOPY RETURNDATASIZE PUSH1 0x0 REVERT JUMPDEST POP JUMPDEST PUSH1 0x1 SWAP2 POP POP SWAP3 SWAP2 POP POP JUMP JUMPDEST PUSH1 0x0 DUP1 REVERT JUMPDEST PUSH1 0x0 DUP2 SWAP1 POP SWAP2 SWAP1 POP JUMP JUMPDEST PUSH2 0x315 DUP2 PUSH2 0x302 JUMP JUMPDEST DUP2 EQ PUSH2 0x320 JUMPI PUSH1 0x0 DUP1 REVERT JUMPDEST POP JUMP JUMPDEST PUSH1 0x0 DUP2 CALLDATALOAD SWAP1 POP PUSH2 0x332 DUP2 PUSH2 0x30C JUMP JUMPDEST SWAP3 SWAP2 POP POP JUMP JUMPDEST PUSH1 0x0 DUP1 PUSH1 0x40 DUP4 DUP6 SUB SLT ISZERO PUSH2 0x34F JUMPI PUSH2 0x34E PUSH2 0x2FD JUMP JUMPDEST JUMPDEST PUSH1 0x0 PUSH2 0x35D DUP6 DUP3 DUP7 ADD PUSH2 0x323 JUMP JUMPDEST SWAP3 POP POP PUSH1 0x20 PUSH2 0x36E DUP6 DUP3 DUP7 ADD PUSH2 0x323 JUMP JUMPDEST SWAP2 POP POP SWAP3 POP SWAP3 SWAP1 POP JUMP JUMPDEST PUSH1 0x0 DUP2 ISZERO ISZERO SWAP1 POP SWAP2 SWAP1 POP JUMP JUMPDEST PUSH2 0x38D DUP2 PUSH2 0x378 JUMP JUMPDEST DUP3 MSTORE POP POP JUMP JUMPDEST PUSH1 0x0 PUSH1 0x20 DUP3 ADD SWAP1 POP PUSH2 0x3A8 PUSH1 0x0 DUP4 ADD DUP5 PUSH2 0x384 JUMP JUMPDEST SWAP3 SWAP2 POP POP JUMP JUMPDEST PUSH1 0x0 DUP3 DUP3 MSTORE PUSH1 0x20 DUP3 ADD SWAP1 POP SWAP3 SWAP2 POP POP JUMP JUMPDEST PUSH32 0x4C6F747465727920636C6F736564000000000000000000000000000000000000 PUSH1 0x0 DUP3 ADD MSTORE POP JUMP JUMPDEST PUSH1 0x0 PUSH2 0x3F5 PUSH1 0xE DUP4 PUSH2 0x3AE JUMP JUMPDEST SWAP2 POP PUSH2 0x400 DUP3 PUSH2 0x3BF JUMP JUMPDEST PUSH1 0x20 DUP3 ADD SWAP1 POP SWAP2 SWAP1 POP JUMP JUMPDEST PUSH1 0x0 PUSH1 0x20 DUP3 ADD SWAP1 POP DUP2 DUP2 SUB PUSH1 0x0 DUP4 ADD MSTORE PUSH2 0x424 DUP2 PUSH2 0x3E8 JUMP JUMPDEST SWAP1 POP SWAP2 SWAP1 POP JUMP JUMPDEST PUSH32 0x56616C756520746F6F20736D616C6C0000000000000000000000000000000000 PUSH1 0x0 DUP3 ADD MSTORE POP JUMP JUMPDEST PUSH1 0x0 PUSH2 0x461 PUSH1 0xF DUP4 PUSH2 0x3AE JUMP JUMPDEST SWAP2 POP PUSH2 0x46C DUP3 PUSH2 0x42B JUMP JUMPDEST PUSH1 0x20 DUP3 ADD SWAP1 POP SWAP2 SWAP1 POP JUMP JUMPDEST PUSH1 0x0 PUSH1 0x20 DUP3 ADD SWAP1 POP DUP2 DUP2 SUB PUSH1 0x0 DUP4 ADD MSTORE PUSH2 0x490 DUP2 PUSH2 0x454 JUMP JUMPDEST SWAP1 POP SWAP2 SWAP1 POP JUMP JUMPDEST PUSH32 0x4E487B7100000000000000000000000000000000000000000000000000000000 PUSH1 0x0 MSTORE PUSH1 0x11 PUSH1 0x4 MSTORE PUSH1 0x24 PUSH1 0x0 REVERT JUMPDEST PUSH1 0x0 PUSH2 0x4D1 DUP3 PUSH2 0x302 JUMP JUMPDEST SWAP2 POP PUSH2 0x4DC DUP4 PUSH2 0x302 JUMP JUMPDEST SWAP3 POP DUP3 DUP3 LT ISZERO PUSH2 0x4EF JUMPI PUSH2 0x4EE PUSH2 0x497 JUMP JUMPDEST JUMPDEST DUP3 DUP3 SUB SWAP1 POP SWAP3 SWAP2 POP POP JUMP INVALID LOG2 PUSH5 0x6970667358 0x22 SLT KECCAK256 SIGNEXTEND 0xD 0xD6 PUSH2 0x6089 BYTE INVALID DUP6 DUP12 INVALID CALLDATACOPY 0xDE CALLDATACOPY PUSH20 0x9EC6D3FB9789FC91C1C521D602891031F064736F PUSH13 0x634300080D0033000000000000 "
				},
				"gasEstimates": {
					"creation": {
						"codeDepositCost": "265600",
						"executionCost": "93173",
						"totalCost": "358773"
					},
					"external": {
						"buy(uint256,uint256)": "infinite",
						"closeLottery()": "26626",
						"drawNumbers()": "166",
						"givePrizes()": "122",
						"mint()": "144",
						"startNewRound()": "26648"
					}
				},
				"methodIdentifiers": {
					"buy(uint256,uint256)": "d6febde8",
					"closeLottery()": "6fd09816",
					"drawNumbers()": "676c902f",
					"givePrizes()": "06d5ee54",
					"mint()": "1249c58b",
					"startNewRound()": "bd85948c"
				}
			},
			"storageLayout": {
				"storage": [
					{
						"astId": 12,
						"contract": "Desktop/P2P&BLOCKCHAIN/FinalTerm/contracts/MyContract.sol:MyContract",
						"label": "balance",
						"offset": 0,
						"slot": "0",
						"type": "t_mapping(t_address,t_uint256)"
					},
					{
						"astId": 17,
						"contract": "Desktop/P2P&BLOCKCHAIN/FinalTerm/contracts/MyContract.sol:MyContract",
						"label": "tickets",
						"offset": 0,
						"slot": "1",
						"type": "t_mapping(t_address,t_struct(Ticket)8_storage)"
					},
					{
						"astId": 19,
						"contract": "Desktop/P2P&BLOCKCHAIN/FinalTerm/contracts/MyContract.sol:MyContract",
						"label": "active",
						"offset": 0,
						"slot": "2",
						"type": "t_bool"
					},
					{
						"astId": 21,
						"contract": "Desktop/P2P&BLOCKCHAIN/FinalTerm/contracts/MyContract.sol:MyContract",
						"label": "owner",
						"offset": 1,
						"slot": "2",
						"type": "t_address"
					},
					{
						"astId": 24,
						"contract": "Desktop/P2P&BLOCKCHAIN/FinalTerm/contracts/MyContract.sol:MyContract",
						"label": "ticket_price",
						"offset": 0,
						"slot": "3",
						"type": "t_uint256"
					}
				],
				"types": {
					"t_address": {
						"encoding": "inplace",
						"label": "address",
						"numberOfBytes": "20"
					},
					"t_bool": {
						"encoding": "inplace",
						"label": "bool",
						"numberOfBytes": "1"
					},
					"t_mapping(t_address,t_struct(Ticket)8_storage)": {
						"encoding": "mapping",
						"key": "t_address",
						"label": "mapping(address => struct MyContract.Ticket)",
						"numberOfBytes": "32",
						"value": "t_struct(Ticket)8_storage"
					},
					"t_mapping(t_address,t_uint256)": {
						"encoding": "mapping",
						"key": "t_address",
						"label": "mapping(address => uint256)",
						"numberOfBytes": "32",
						"value": "t_uint256"
					},
					"t_struct(Ticket)8_storage": {
						"encoding": "inplace",
						"label": "struct MyContract.Ticket",
						"members": [
							{
								"astId": 3,
								"contract": "Desktop/P2P&BLOCKCHAIN/FinalTerm/contracts/MyContract.sol:MyContract",
								"label": "buyer",
								"offset": 0,
								"slot": "0",
								"type": "t_address"
							},
							{
								"astId": 5,
								"contract": "Desktop/P2P&BLOCKCHAIN/FinalTerm/contracts/MyContract.sol:MyContract",
								"label": "numbers",
								"offset": 0,
								"slot": "1",
								"type": "t_uint256"
							},
							{
								"astId": 7,
								"contract": "Desktop/P2P&BLOCKCHAIN/FinalTerm/contracts/MyContract.sol:MyContract",
								"label": "powerball",
								"offset": 0,
								"slot": "2",
								"type": "t_uint256"
							}
						],
						"numberOfBytes": "96"
					},
					"t_uint256": {
						"encoding": "inplace",
						"label": "uint256",
						"numberOfBytes": "32"
					}
				}
			},
			"userdoc": {
				"kind": "user",
				"methods": {},
				"version": 1
			}
		}
	}
}