{
  "contractName": "TRY",
  "abi": [
    {
      "inputs": [],
      "stateMutability": "nonpayable",
      "type": "constructor"
    },
    {
      "anonymous": false,
      "inputs": [
        {
          "indexed": false,
          "internalType": "uint256[6]",
          "name": "numbers",
          "type": "uint256[6]"
        }
      ],
      "name": "Draw",
      "type": "event"
    },
    {
      "anonymous": false,
      "inputs": [],
      "name": "EndLottery",
      "type": "event"
    },
    {
      "anonymous": false,
      "inputs": [],
      "name": "EndRound",
      "type": "event"
    },
    {
      "anonymous": false,
      "inputs": [],
      "name": "StartLottery",
      "type": "event"
    },
    {
      "anonymous": false,
      "inputs": [],
      "name": "StartRound",
      "type": "event"
    },
    {
      "anonymous": false,
      "inputs": [
        {
          "indexed": false,
          "internalType": "address",
          "name": "buyer",
          "type": "address"
        },
        {
          "indexed": false,
          "internalType": "uint256[5]",
          "name": "number",
          "type": "uint256[5]"
        },
        {
          "indexed": false,
          "internalType": "uint256",
          "name": "powerball",
          "type": "uint256"
        }
      ],
      "name": "TicketBought",
      "type": "event"
    },
    {
      "anonymous": false,
      "inputs": [
        {
          "indexed": false,
          "internalType": "address",
          "name": "buyer",
          "type": "address"
        },
        {
          "indexed": false,
          "internalType": "uint256",
          "name": "class",
          "type": "uint256"
        }
      ],
      "name": "TicketWinner",
      "type": "event"
    },
    {
      "inputs": [],
      "name": "activeLottery",
      "outputs": [
        {
          "internalType": "bool",
          "name": "",
          "type": "bool"
        }
      ],
      "stateMutability": "view",
      "type": "function",
      "constant": true
    },
    {
      "inputs": [],
      "name": "activeRound",
      "outputs": [
        {
          "internalType": "bool",
          "name": "",
          "type": "bool"
        }
      ],
      "stateMutability": "view",
      "type": "function",
      "constant": true
    },
    {
      "inputs": [],
      "name": "blockClosed",
      "outputs": [
        {
          "internalType": "uint256",
          "name": "",
          "type": "uint256"
        }
      ],
      "stateMutability": "view",
      "type": "function",
      "constant": true
    },
    {
      "inputs": [],
      "name": "deactivateLottery",
      "outputs": [
        {
          "internalType": "bool",
          "name": "",
          "type": "bool"
        }
      ],
      "stateMutability": "view",
      "type": "function",
      "constant": true
    },
    {
      "inputs": [
        {
          "internalType": "uint256",
          "name": "",
          "type": "uint256"
        }
      ],
      "name": "lastDraw",
      "outputs": [
        {
          "internalType": "uint256",
          "name": "",
          "type": "uint256"
        }
      ],
      "stateMutability": "view",
      "type": "function",
      "constant": true
    },
    {
      "inputs": [],
      "name": "lottery_manager",
      "outputs": [
        {
          "internalType": "address",
          "name": "",
          "type": "address"
        }
      ],
      "stateMutability": "view",
      "type": "function",
      "constant": true
    },
    {
      "inputs": [
        {
          "internalType": "address",
          "name": "",
          "type": "address"
        }
      ],
      "name": "winnerMessage",
      "outputs": [
        {
          "internalType": "uint256",
          "name": "",
          "type": "uint256"
        }
      ],
      "stateMutability": "view",
      "type": "function",
      "constant": true
    },
    {
      "inputs": [
        {
          "internalType": "uint256",
          "name": "_M",
          "type": "uint256"
        }
      ],
      "name": "startLottery",
      "outputs": [],
      "stateMutability": "nonpayable",
      "type": "function"
    },
    {
      "inputs": [],
      "name": "startNewRound",
      "outputs": [],
      "stateMutability": "nonpayable",
      "type": "function"
    },
    {
      "inputs": [
        {
          "internalType": "uint256[5]",
          "name": "_numbers",
          "type": "uint256[5]"
        },
        {
          "internalType": "uint256",
          "name": "_powerball",
          "type": "uint256"
        }
      ],
      "name": "buy",
      "outputs": [],
      "stateMutability": "payable",
      "type": "function",
      "payable": true
    },
    {
      "inputs": [],
      "name": "closeLottery",
      "outputs": [],
      "stateMutability": "payable",
      "type": "function",
      "payable": true
    },
    {
      "inputs": [],
      "name": "closeRound",
      "outputs": [],
      "stateMutability": "payable",
      "type": "function",
      "payable": true
    }
  ],
  "bytecode": "0x6080604052670de0b6b3a7640000600d5534801561001c57600080fd5b506000600460006101000a81548160ff0219169083151502179055506000600460026101000a81548160ff0219169083151502179055506000600460016101000a81548160ff02191690831515021790555061574b8061007d6000396000f3fe608060405260043610620000b65760003560e01c8063b6d5aa44116200006d578063b6d5aa4414620001b7578063bd85948c14620001fb578063c6bec93a1462000215578063e278fe6f1462000243578063e901eb69146200024f578063f77a1d0e146200029357620000b6565b80631174fed914620000bb57806311f0281e14620000eb57806320e909d5146200011b5780636fd09816146200014b5780638b734fbb14620001575780639fed03831462000187575b600080fd5b348015620000c857600080fd5b50620000d3620002b3565b604051620000e29190620017d3565b60405180910390f35b348015620000f857600080fd5b5062000103620002d9565b6040516200011291906200180d565b60405180910390f35b3480156200012857600080fd5b5062000133620002ec565b6040516200014291906200180d565b60405180910390f35b62000155620002ff565b005b3480156200016457600080fd5b506200016f620004da565b6040516200017e919062001845565b60405180910390f35b3480156200019457600080fd5b506200019f620004e0565b604051620001ae91906200180d565b60405180910390f35b348015620001c457600080fd5b50620001e36004803603810190620001dd9190620018a2565b620004f3565b604051620001f2919062001845565b60405180910390f35b3480156200020857600080fd5b50620002136200050f565b005b3480156200022257600080fd5b506200024160048036038101906200023b9190620018a2565b6200065a565b005b6200024d620007bc565b005b3480156200025c57600080fd5b506200027b600480360381019062000275919062001905565b620009bc565b6040516200028a919062001845565b60405180910390f35b620002b16004803603810190620002ab919062001a9a565b620009d4565b005b600460039054906101000a900473ffffffffffffffffffffffffffffffffffffffff1681565b600460019054906101000a900460ff1681565b600460029054906101000a900460ff1681565b3373ffffffffffffffffffffffffffffffffffffffff16600460039054906101000a900473ffffffffffffffffffffffffffffffffffffffff1673ffffffffffffffffffffffffffffffffffffffff161462000392576040517f08c379a0000000000000000000000000000000000000000000000000000000008152600401620003899062001b42565b60405180910390fd5b436000541115620004585760005b600380549050811015620004565760038181548110620003c557620003c462001b64565b5b906000526020600020906007020160000160009054906101000a900473ffffffffffffffffffffffffffffffffffffffff1673ffffffffffffffffffffffffffffffffffffffff166108fc600d549081150290604051600060405180830381858888f193505050501580156200043f573d6000803e3d6000fd5b5080806200044d9062001bc2565b915050620003a0565b505b7fb04a3f1c056dddc94d520d253684ddea9adc60cd7aeb3b1c893f88575730a28a60405160405180910390a16001600460026101000a81548160ff021916908315150217905550600460039054906101000a900473ffffffffffffffffffffffffffffffffffffffff1673ffffffffffffffffffffffffffffffffffffffff16ff5b60005481565b600460009054906101000a900460ff1681565b600581600681106200050457600080fd5b016000915090505481565b3373ffffffffffffffffffffffffffffffffffffffff16600460039054906101000a900473ffffffffffffffffffffffffffffffffffffffff1673ffffffffffffffffffffffffffffffffffffffff1614620005a2576040517f08c379a0000000000000000000000000000000000000000000000000000000008152600401620005999062001b42565b60405180910390fd5b60001515600460019054906101000a900460ff16151514620005fb576040517f08c379a0000000000000000000000000000000000000000000000000000000008152600401620005f29062001c5f565b60405180910390fd5b600154436200060b919062001c81565b6000819055506001600460016101000a81548160ff0219169083151502179055507faa7d75688cd47a746e56afc712fbba4911006e7a3c49e61732dbf614fbb7836d60405160405180910390a1565b33600460036101000a81548173ffffffffffffffffffffffffffffffffffffffff021916908373ffffffffffffffffffffffffffffffffffffffff1602179055508060018190555060015443620006b2919062001c81565b600081905550604051620006c69062001612565b604051809103906000f080158015620006e3573d6000803e3d6000fd5b50600e60006101000a81548173ffffffffffffffffffffffffffffffffffffffff021916908373ffffffffffffffffffffffffffffffffffffffff1602179055506000600190505b60088110156200075657620007408162000d7e565b80806200074d9062001bc2565b9150506200072b565b506001600460006101000a81548160ff0219169083151502179055506001600460016101000a81548160ff0219169083151502179055507f43a3db816c6a0e23abc57f1a214dd677a734e6b4b2dbdffa29dc180dac18c63160405160405180910390a150565b3373ffffffffffffffffffffffffffffffffffffffff16600460039054906101000a900473ffffffffffffffffffffffffffffffffffffffff1673ffffffffffffffffffffffffffffffffffffffff16146200084f576040517f08c379a0000000000000000000000000000000000000000000000000000000008152600401620008469062001b42565b60405180910390fd5b60011515600460019054906101000a900460ff16151514620008a8576040517f08c379a00000000000000000000000000000000000000000000000000000000081526004016200089f9062001d2e565b60405180910390fd5b4360005410620008ef576040517f08c379a0000000000000000000000000000000000000000000000000000000008152600401620008e69062001da0565b60405180910390fd5b620008f962000ea5565b600460039054906101000a900473ffffffffffffffffffffffffffffffffffffffff1673ffffffffffffffffffffffffffffffffffffffff166108fc479081150290604051600060405180830381858888f1935050505015801562000962573d6000803e3d6000fd5b506003600062000973919062001620565b6000600460016101000a81548160ff0219169083151502179055507f35fde02d7762e0db955cf7ca04d779ccb58ca18a01f25905c08f02f72e37178160405160405180910390a1565b600b6020528060005260406000206000915090505481565b60011515600460019054906101000a900460ff1615151462000a2d576040517f08c379a000000000000000000000000000000000000000000000000000000000815260040162000a249062001e12565b60405180910390fd5b43600054101562000a75576040517f08c379a000000000000000000000000000000000000000000000000000000000815260040162000a6c9062001e12565b60405180910390fd5b6000349050600d5481101562000ac2576040517f08c379a000000000000000000000000000000000000000000000000000000000815260040162000ab99062001e84565b60405180910390fd5b6005801462000b08576040517f08c379a000000000000000000000000000000000000000000000000000000000815260040162000aff9062001ef6565b60405180910390fd5b6001821015801562000b1b5750601a8211155b62000b5d576040517f08c379a000000000000000000000000000000000000000000000000000000000815260040162000b549062001f8e565b60405180910390fd5b60005b600581101562000c0957600184826005811062000b825762000b8162001b64565b5b60200201511015801562000bb15750604584826005811062000ba95762000ba862001b64565b5b602002015111155b62000bf3576040517f08c379a000000000000000000000000000000000000000000000000000000000815260040162000bea9062002026565b60405180910390fd5b808062000c009062001bc2565b91505062000b60565b50600060405180606001604052803373ffffffffffffffffffffffffffffffffffffffff168152602001858152602001848152509050600381908060018154018082558091505060019003906000526020600020906007020160009091909190915060008201518160000160006101000a81548173ffffffffffffffffffffffffffffffffffffffff021916908373ffffffffffffffffffffffffffffffffffffffff16021790555060208201518160010190600562000ccb92919062001646565b50604082015181600601555050600d5482111562000d3b573373ffffffffffffffffffffffffffffffffffffffff166108fc600d548462000d0d919062002048565b9081150290604051600060405180830381858888f1935050505015801562000d39573d6000803e3d6000fd5b505b7fd40d0e98321bdbf3d35561e72b66863312df2c31d5ac2c275e80db6160184e5a33858560405162000d70939291906200213e565b60405180910390a150505050565b3373ffffffffffffffffffffffffffffffffffffffff16600460039054906101000a900473ffffffffffffffffffffffffffffffffffffffff1673ffffffffffffffffffffffffffffffffffffffff161462000e11576040517f08c379a000000000000000000000000000000000000000000000000000000000815260040162000e089062001b42565b60405180910390fd5b600e60009054906101000a900473ffffffffffffffffffffffffffffffffffffffff1673ffffffffffffffffffffffffffffffffffffffff166392642744826040518263ffffffff1660e01b815260040162000e6e919062001845565b600060405180830381600087803b15801562000e8957600080fd5b505af115801562000e9e573d6000803e3d6000fd5b5050505050565b3373ffffffffffffffffffffffffffffffffffffffff16600460039054906101000a900473ffffffffffffffffffffffffffffffffffffffff1673ffffffffffffffffffffffffffffffffffffffff161462000f38576040517f08c379a000000000000000000000000000000000000000000000000000000000815260040162000f2f9062001b42565b60405180910390fd5b600062000f4462001203565b905060005b600380549050811015620011ff576000808360056006811062000f715762000f7062001b64565b5b60200201516003848154811062000f8d5762000f8c62001b64565b5b9060005260206000209060070201600601540362000faa57600190505b60005b6005811015620010625760005b60058110156200104b5785816006811062000fda5762000fd962001b64565b5b60200201516003868154811062000ff65762000ff562001b64565b5b906000526020600020906007020160010183600581106200101c576200101b62001b64565b5b01540362001035578380620010319062001bc2565b9450505b8080620010429062001bc2565b91505062000fba565b508080620010599062001bc2565b91505062000fad565b506000620010718383620014ef565b905060008114620011e657600e60009054906101000a900473ffffffffffffffffffffffffffffffffffffffff1673ffffffffffffffffffffffffffffffffffffffff1663c24132eb60038681548110620010d157620010d062001b64565b5b906000526020600020906007020160000160009054906101000a900473ffffffffffffffffffffffffffffffffffffffff16836040518363ffffffff1660e01b8152600401620011239291906200217b565b600060405180830381600087803b1580156200113e57600080fd5b505af115801562001153573d6000803e3d6000fd5b50505050620011628162000d7e565b7fa30883286d1b18a0a7e8754d2baf4c6b16e6de90c35578e0686e7c197a7ce353600385815481106200119a576200119962001b64565b5b906000526020600020906007020160000160009054906101000a900473ffffffffffffffffffffffffffffffffffffffff1682604051620011dd9291906200217b565b60405180910390a15b5050508080620011f69062001bc2565b91505062000f49565b5050565b6200120d6200168b565b3373ffffffffffffffffffffffffffffffffffffffff16600460039054906101000a900473ffffffffffffffffffffffffffffffffffffffff1673ffffffffffffffffffffffffffffffffffffffff1614620012a0576040517f08c379a0000000000000000000000000000000000000000000000000000000008152600401620012979062001b42565b60405180910390fd5b436000541115620012e8576040517f08c379a0000000000000000000000000000000000000000000000000000000008152600401620012df90620021f8565b60405180910390fd5b620012f26200168b565b600060204362001303919062001c81565b90506000805b60068110156200149857600581146200138b57600160458484604051602001620013359291906200221a565b6040516020818303038152906040528051906020012060001c6200135a919062002276565b62001366919062001c81565b8482600681106200137c576200137b62001b64565b5b602002018181525050620013f5565b6001601d8484604051602001620013a49291906200221a565b6040516020818303038152906040528051906020012060001c620013c9919062002276565b620013d5919062001c81565b848260068110620013eb57620013ea62001b64565b5b6020020181815250505b60005b81811015620014645784826006811062001417576200141662001b64565b5b602002015185826006811062001432576200143162001b64565b5b6020020151036200144e5781806200144a90620022ae565b9250505b80806200145b9062001bc2565b915050620013f8565b508381600681106200147b576200147a62001b64565b5b6020020151915080806200148f9062001bc2565b91505062001309565b507f3ea6abb448621edc89dc8a920861362b57e85970eab6ff87dc41424b6ac6bb1b83604051620014ca91906200236c565b60405180910390a1826005906006620014e5929190620016ad565b5082935050505090565b60008083148015620015015750600182145b156200151157600890506200160c565b600183036200153e57818362001528919062001c81565b600862001536919062002048565b90506200160c565b600283036200156b57818362001555919062001c81565b600862001563919062002048565b90506200160c565b600383036200159857818362001582919062001c81565b600862001590919062002048565b90506200160c565b60048303620015c5578183620015af919062001c81565b6008620015bd919062002048565b90506200160c565b600583148015620015d65750600082145b15620015e657600290506200160c565b600583148015620015f75750600182145b156200160757600190506200160c565b600090505b92915050565b61338c806200238a83390190565b5080546000825560070290600052602060002090810190620016439190620016f2565b50565b826005810192821562001678579160200282015b82811115620016775782518255916020019190600101906200165a565b5b5090506200168791906200174c565b5090565b6040518060c00160405280600690602082028036833780820191505090505090565b8260068101928215620016df579160200282015b82811115620016de578251825591602001919060010190620016c1565b5b509050620016ee91906200174c565b5090565b5b808211156200174857600080820160006101000a81549073ffffffffffffffffffffffffffffffffffffffff02191690556001820160006200173691906200176b565b600682016000905550600701620016f3565b5090565b5b80821115620017675760008160009055506001016200174d565b5090565b506000815560010160008155600101600081556001016000815560010160009055565b600073ffffffffffffffffffffffffffffffffffffffff82169050919050565b6000620017bb826200178e565b9050919050565b620017cd81620017ae565b82525050565b6000602082019050620017ea6000830184620017c2565b92915050565b60008115159050919050565b6200180781620017f0565b82525050565b6000602082019050620018246000830184620017fc565b92915050565b6000819050919050565b6200183f816200182a565b82525050565b60006020820190506200185c600083018462001834565b92915050565b6000604051905090565b600080fd5b6200187c816200182a565b81146200188857600080fd5b50565b6000813590506200189c8162001871565b92915050565b600060208284031215620018bb57620018ba6200186c565b5b6000620018cb848285016200188b565b91505092915050565b620018df81620017ae565b8114620018eb57600080fd5b50565b600081359050620018ff81620018d4565b92915050565b6000602082840312156200191e576200191d6200186c565b5b60006200192e84828501620018ee565b91505092915050565b600080fd5b6000601f19601f8301169050919050565b7f4e487b7100000000000000000000000000000000000000000000000000000000600052604160045260246000fd5b62001987826200193c565b810181811067ffffffffffffffff82111715620019a957620019a86200194d565b5b80604052505050565b6000620019be62001862565b9050620019cc82826200197c565b919050565b600067ffffffffffffffff821115620019ef57620019ee6200194d565b5b602082029050919050565b600080fd5b600062001a1662001a1084620019d1565b620019b2565b9050806020840283018581111562001a335762001a32620019fa565b5b835b8181101562001a60578062001a4b88826200188b565b84526020840193505060208101905062001a35565b5050509392505050565b600082601f83011262001a825762001a8162001937565b5b600562001a91848285620019ff565b91505092915050565b60008060c0838503121562001ab45762001ab36200186c565b5b600062001ac48582860162001a6a565b92505060a062001ad7858286016200188b565b9150509250929050565b600082825260208201905092915050565b7f596f75277265206e6f7420746865206c6f7474657279206d616e616765720000600082015250565b600062001b2a601e8362001ae1565b915062001b378262001af2565b602082019050919050565b6000602082019050818103600083015262001b5d8162001b1b565b9050919050565b7f4e487b7100000000000000000000000000000000000000000000000000000000600052603260045260246000fd5b7f4e487b7100000000000000000000000000000000000000000000000000000000600052601160045260246000fd5b600062001bcf826200182a565b91507fffffffffffffffffffffffffffffffffffffffffffffffffffffffffffffffff820362001c045762001c0362001b93565b5b600182019050919050565b7f526f756e6420616c726561647920737461727465642100000000000000000000600082015250565b600062001c4760168362001ae1565b915062001c548262001c0f565b602082019050919050565b6000602082019050818103600083015262001c7a8162001c38565b9050919050565b600062001c8e826200182a565b915062001c9b836200182a565b9250827fffffffffffffffffffffffffffffffffffffffffffffffffffffffffffffffff0382111562001cd35762001cd262001b93565b5b828201905092915050565b7f526f756e6420616c726561647920636c6f736564210000000000000000000000600082015250565b600062001d1660158362001ae1565b915062001d238262001cde565b602082019050919050565b6000602082019050818103600083015262001d498162001d07565b9050919050565b7f526f756e64206e6f74207965742066696e697368656421000000000000000000600082015250565b600062001d8860178362001ae1565b915062001d958262001d50565b602082019050919050565b6000602082019050818103600083015262001dbb8162001d79565b9050919050565b7f4c6f747465727920636c6f736564000000000000000000000000000000000000600082015250565b600062001dfa600e8362001ae1565b915062001e078262001dc2565b602082019050919050565b6000602082019050818103600083015262001e2d8162001deb565b9050919050565b7f56616c756520746f6f20736d616c6c0000000000000000000000000000000000600082015250565b600062001e6c600f8362001ae1565b915062001e798262001e34565b602082019050919050565b6000602082019050818103600083015262001e9f8162001e5d565b9050919050565b7f496e736572742035206e756d6265720000000000000000000000000000000000600082015250565b600062001ede600f8362001ae1565b915062001eeb8262001ea6565b602082019050919050565b6000602082019050818103600083015262001f118162001ecf565b9050919050565b7f496e73657274206120636f72726563742076616c756520666f7220706f77657260008201527f62616c6c00000000000000000000000000000000000000000000000000000000602082015250565b600062001f7660248362001ae1565b915062001f838262001f18565b604082019050919050565b6000602082019050818103600083015262001fa98162001f67565b9050919050565b7f496e73657274206120636f72726563742076616c756520666f72206e756d626560008201527f7273000000000000000000000000000000000000000000000000000000000000602082015250565b60006200200e60228362001ae1565b91506200201b8262001fb0565b604082019050919050565b60006020820190508181036000830152620020418162001fff565b9050919050565b600062002055826200182a565b915062002062836200182a565b92508282101562002078576200207762001b93565b5b828203905092915050565b600060059050919050565b600081905092915050565b6000819050919050565b620020ae816200182a565b82525050565b6000620020c28383620020a3565b60208301905092915050565b6000602082019050919050565b620020e68162002083565b620020f281846200208e565b9250620020ff8262002099565b8060005b83811015620021365781516200211a8782620020b4565b96506200212783620020ce565b92505060018101905062002103565b505050505050565b600060e082019050620021556000830186620017c2565b620021646020830185620020db565b6200217360c083018462001834565b949350505050565b6000604082019050620021926000830185620017c2565b620021a1602083018462001834565b9392505050565b7f4c6f7474657279206e6f742079657420636c6f73656400000000000000000000600082015250565b6000620021e060168362001ae1565b9150620021ed82620021a8565b602082019050919050565b600060208201905081810360008301526200221381620021d1565b9050919050565b600060408201905062002231600083018562001834565b62002240602083018462001834565b9392505050565b7f4e487b7100000000000000000000000000000000000000000000000000000000600052601260045260246000fd5b600062002283826200182a565b915062002290836200182a565b925082620022a357620022a262002247565b5b828206905092915050565b6000620022bb826200182a565b915060008203620022d157620022d062001b93565b5b600182039050919050565b600060069050919050565b600081905092915050565b6000819050919050565b6000602082019050919050565b6200231481620022dc565b620023208184620022e7565b92506200232d82620022f2565b8060005b8381101562002364578151620023488782620020b4565b96506200235583620022fc565b92505060018101905062002331565b505050505050565b600060c08201905062002383600083018462002309565b9291505056fe60806040523480156200001157600080fd5b506040518060400160405280600a81526020017f4e46544d616e61676572000000000000000000000000000000000000000000008152506040518060400160405280600381526020017f49544d000000000000000000000000000000000000000000000000000000000081525081600090805190602001906200009692919062000319565b508060019080519060200190620000af92919062000319565b50505033600860006101000a81548173ffffffffffffffffffffffffffffffffffffffff021916908373ffffffffffffffffffffffffffffffffffffffff1602179055506040518060800160405280605f8152602001620032ce605f9139600960006001815260200190815260200160002090805190602001906200013692919062000319565b506040518060800160405280605f8152602001620030f3605f9139600960006002815260200190815260200160002090805190602001906200017a92919062000319565b506040518060800160405280605f815260200162003094605f913960096000600381526020019081526020016000209080519060200190620001be92919062000319565b506040518060800160405280605f81526020016200326f605f9139600960006004815260200190815260200160002090805190602001906200020292919062000319565b506040518060800160405280605f815260200162003152605f9139600960006005815260200190815260200160002090805190602001906200024692919062000319565b506040518060800160405280605f8152602001620031b1605f9139600960006006815260200190815260200160002090805190602001906200028a92919062000319565b506040518060800160405280605f815260200162003210605f913960096000600781526020019081526020016000209080519060200190620002ce92919062000319565b506040518060800160405280605f81526020016200332d605f9139600960006008815260200190815260200160002090805190602001906200031292919062000319565b506200042d565b8280546200032790620003f8565b90600052602060002090601f0160209004810192826200034b576000855562000397565b82601f106200036657805160ff191683800117855562000397565b8280016001018555821562000397579182015b828111156200039657825182559160200191906001019062000379565b5b509050620003a69190620003aa565b5090565b5b80821115620003c5576000816000905550600101620003ab565b5090565b7f4e487b7100000000000000000000000000000000000000000000000000000000600052602260045260246000fd5b600060028204905060018216806200041157607f821691505b602082108103620004275762000426620003c9565b5b50919050565b612c57806200043d6000396000f3fe608060405234801561001057600080fd5b50600436106100f55760003560e01c806370a0823111610097578063b88d4fde11610066578063b88d4fde14610282578063c24132eb1461029e578063c87b56dd146102ba578063e985e9c5146102ea576100f5565b806370a08231146101fc578063926427441461022c57806395d89b4114610248578063a22cb46514610266576100f5565b8063095ea7b3116100d3578063095ea7b31461017857806323b872dd1461019457806342842e0e146101b05780636352211e146101cc576100f5565b806301ffc9a7146100fa57806306fdde031461012a578063081812fc14610148575b600080fd5b610114600480360381019061010f9190611ab8565b61031a565b6040516101219190611b00565b60405180910390f35b6101326103fc565b60405161013f9190611bb4565b60405180910390f35b610162600480360381019061015d9190611c0c565b61048e565b60405161016f9190611c7a565b60405180910390f35b610192600480360381019061018d9190611cc1565b610513565b005b6101ae60048036038101906101a99190611d01565b61062a565b005b6101ca60048036038101906101c59190611d01565b61068a565b005b6101e660048036038101906101e19190611c0c565b6106aa565b6040516101f39190611c7a565b60405180910390f35b61021660048036038101906102119190611d54565b61075b565b6040516102239190611d90565b60405180910390f35b61024660048036038101906102419190611c0c565b610812565b005b610250610917565b60405161025d9190611bb4565b60405180910390f35b610280600480360381019061027b9190611dd7565b6109a9565b005b61029c60048036038101906102979190611f4c565b6109bf565b005b6102b860048036038101906102b39190611cc1565b610a21565b005b6102d460048036038101906102cf9190611c0c565b610ade565b6040516102e19190611bb4565b60405180910390f35b61030460048036038101906102ff9190611fcf565b610c2f565b6040516103119190611b00565b60405180910390f35b60007f80ac58cd000000000000000000000000000000000000000000000000000000007bffffffffffffffffffffffffffffffffffffffffffffffffffffffff1916827bffffffffffffffffffffffffffffffffffffffffffffffffffffffff191614806103e557507f5b5e139f000000000000000000000000000000000000000000000000000000007bffffffffffffffffffffffffffffffffffffffffffffffffffffffff1916827bffffffffffffffffffffffffffffffffffffffffffffffffffffffff1916145b806103f557506103f482610cc3565b5b9050919050565b60606000805461040b9061203e565b80601f01602080910402602001604051908101604052809291908181526020018280546104379061203e565b80156104845780601f1061045957610100808354040283529160200191610484565b820191906000526020600020905b81548152906001019060200180831161046757829003601f168201915b5050505050905090565b600061049982610d2d565b6104d8576040517f08c379a00000000000000000000000000000000000000000000000000000000081526004016104cf906120e1565b60405180910390fd5b6004600083815260200190815260200160002060009054906101000a900473ffffffffffffffffffffffffffffffffffffffff169050919050565b600061051e826106aa565b90508073ffffffffffffffffffffffffffffffffffffffff168373ffffffffffffffffffffffffffffffffffffffff160361058e576040517f08c379a000000000000000000000000000000000000000000000000000000000815260040161058590612173565b60405180910390fd5b8073ffffffffffffffffffffffffffffffffffffffff166105ad610d99565b73ffffffffffffffffffffffffffffffffffffffff1614806105dc57506105db816105d6610d99565b610c2f565b5b61061b576040517f08c379a000000000000000000000000000000000000000000000000000000000815260040161061290612205565b60405180910390fd5b6106258383610da1565b505050565b61063b610635610d99565b82610e5a565b61067a576040517f08c379a000000000000000000000000000000000000000000000000000000000815260040161067190612297565b60405180910390fd5b610685838383610f38565b505050565b6106a5838383604051806020016040528060008152506109bf565b505050565b6000806002600084815260200190815260200160002060009054906101000a900473ffffffffffffffffffffffffffffffffffffffff169050600073ffffffffffffffffffffffffffffffffffffffff168173ffffffffffffffffffffffffffffffffffffffff1603610752576040517f08c379a000000000000000000000000000000000000000000000000000000000815260040161074990612329565b60405180910390fd5b80915050919050565b60008073ffffffffffffffffffffffffffffffffffffffff168273ffffffffffffffffffffffffffffffffffffffff16036107cb576040517f08c379a00000000000000000000000000000000000000000000000000000000081526004016107c2906123bb565b60405180910390fd5b600360008373ffffffffffffffffffffffffffffffffffffffff1673ffffffffffffffffffffffffffffffffffffffff168152602001908152602001600020549050919050565b600061081e600761119e565b905061084c600860009054906101000a900473ffffffffffffffffffffffffffffffffffffffff16826111ac565b6108f18160096000858152602001908152602001600020805461086e9061203e565b80601f016020809104026020016040519081016040528092919081815260200182805461089a9061203e565b80156108e75780601f106108bc576101008083540402835291602001916108e7565b820191906000526020600020905b8154815290600101906020018083116108ca57829003601f168201915b5050505050611385565b80600b60008481526020019081526020016000208190555061091360076113f9565b5050565b6060600180546109269061203e565b80601f01602080910402602001604051908101604052809291908181526020018280546109529061203e565b801561099f5780601f106109745761010080835404028352916020019161099f565b820191906000526020600020905b81548152906001019060200180831161098257829003601f168201915b5050505050905090565b6109bb6109b4610d99565b838361140f565b5050565b6109d06109ca610d99565b83610e5a565b610a0f576040517f08c379a0000000000000000000000000000000000000000000000000000000008152600401610a0690612297565b60405180910390fd5b610a1b8484848461157b565b50505050565b610a61600860009054906101000a900473ffffffffffffffffffffffffffffffffffffffff1683600b60008581526020019081526020016000205461068a565b600a60008373ffffffffffffffffffffffffffffffffffffffff1673ffffffffffffffffffffffffffffffffffffffff168152602001908152602001600020600b60008381526020019081526020016000205490806001815401808255809150506001900390600052602060002001600090919091909150555050565b6060610ae982610d2d565b610b28576040517f08c379a0000000000000000000000000000000000000000000000000000000008152600401610b1f9061244d565b60405180910390fd5b6000600660008481526020019081526020016000208054610b489061203e565b80601f0160208091040260200160405190810160405280929190818152602001828054610b749061203e565b8015610bc15780601f10610b9657610100808354040283529160200191610bc1565b820191906000526020600020905b815481529060010190602001808311610ba457829003601f168201915b505050505090506000610bd26115d7565b90506000815103610be7578192505050610c2a565b600082511115610c1c578082604051602001610c049291906124a9565b60405160208183030381529060405292505050610c2a565b610c25846115ee565b925050505b919050565b6000600560008473ffffffffffffffffffffffffffffffffffffffff1673ffffffffffffffffffffffffffffffffffffffff16815260200190815260200160002060008373ffffffffffffffffffffffffffffffffffffffff1673ffffffffffffffffffffffffffffffffffffffff16815260200190815260200160002060009054906101000a900460ff16905092915050565b60007f01ffc9a7000000000000000000000000000000000000000000000000000000007bffffffffffffffffffffffffffffffffffffffffffffffffffffffff1916827bffffffffffffffffffffffffffffffffffffffffffffffffffffffff1916149050919050565b60008073ffffffffffffffffffffffffffffffffffffffff166002600084815260200190815260200160002060009054906101000a900473ffffffffffffffffffffffffffffffffffffffff1673ffffffffffffffffffffffffffffffffffffffff1614159050919050565b600033905090565b816004600083815260200190815260200160002060006101000a81548173ffffffffffffffffffffffffffffffffffffffff021916908373ffffffffffffffffffffffffffffffffffffffff160217905550808273ffffffffffffffffffffffffffffffffffffffff16610e14836106aa565b73ffffffffffffffffffffffffffffffffffffffff167f8c5be1e5ebec7d5bd14f71427d1e84f3dd0314c0f7b2291e5b200ac8c7c3b92560405160405180910390a45050565b6000610e6582610d2d565b610ea4576040517f08c379a0000000000000000000000000000000000000000000000000000000008152600401610e9b9061253f565b60405180910390fd5b6000610eaf836106aa565b90508073ffffffffffffffffffffffffffffffffffffffff168473ffffffffffffffffffffffffffffffffffffffff161480610ef15750610ef08185610c2f565b5b80610f2f57508373ffffffffffffffffffffffffffffffffffffffff16610f178461048e565b73ffffffffffffffffffffffffffffffffffffffff16145b91505092915050565b8273ffffffffffffffffffffffffffffffffffffffff16610f58826106aa565b73ffffffffffffffffffffffffffffffffffffffff1614610fae576040517f08c379a0000000000000000000000000000000000000000000000000000000008152600401610fa5906125d1565b60405180910390fd5b600073ffffffffffffffffffffffffffffffffffffffff168273ffffffffffffffffffffffffffffffffffffffff160361101d576040517f08c379a000000000000000000000000000000000000000000000000000000000815260040161101490612663565b60405180910390fd5b611028838383611695565b611033600082610da1565b6001600360008573ffffffffffffffffffffffffffffffffffffffff1673ffffffffffffffffffffffffffffffffffffffff168152602001908152602001600020600082825461108391906126b2565b925050819055506001600360008473ffffffffffffffffffffffffffffffffffffffff1673ffffffffffffffffffffffffffffffffffffffff16815260200190815260200160002060008282546110da91906126e6565b92505081905550816002600083815260200190815260200160002060006101000a81548173ffffffffffffffffffffffffffffffffffffffff021916908373ffffffffffffffffffffffffffffffffffffffff160217905550808273ffffffffffffffffffffffffffffffffffffffff168473ffffffffffffffffffffffffffffffffffffffff167fddf252ad1be2c89b69c2b068fc378daa952ba7f163c4a11628f55a4df523b3ef60405160405180910390a461119983838361169a565b505050565b600081600001549050919050565b600073ffffffffffffffffffffffffffffffffffffffff168273ffffffffffffffffffffffffffffffffffffffff160361121b576040517f08c379a000000000000000000000000000000000000000000000000000000000815260040161121290612788565b60405180910390fd5b61122481610d2d565b15611264576040517f08c379a000000000000000000000000000000000000000000000000000000000815260040161125b906127f4565b60405180910390fd5b61127060008383611695565b6001600360008473ffffffffffffffffffffffffffffffffffffffff1673ffffffffffffffffffffffffffffffffffffffff16815260200190815260200160002060008282546112c091906126e6565b92505081905550816002600083815260200190815260200160002060006101000a81548173ffffffffffffffffffffffffffffffffffffffff021916908373ffffffffffffffffffffffffffffffffffffffff160217905550808273ffffffffffffffffffffffffffffffffffffffff16600073ffffffffffffffffffffffffffffffffffffffff167fddf252ad1be2c89b69c2b068fc378daa952ba7f163c4a11628f55a4df523b3ef60405160405180910390a46113816000838361169a565b5050565b61138e82610d2d565b6113cd576040517f08c379a00000000000000000000000000000000000000000000000000000000081526004016113c490612886565b60405180910390fd5b806006600084815260200190815260200160002090805190602001906113f49291906119a9565b505050565b6001816000016000828254019250508190555050565b8173ffffffffffffffffffffffffffffffffffffffff168373ffffffffffffffffffffffffffffffffffffffff160361147d576040517f08c379a0000000000000000000000000000000000000000000000000000000008152600401611474906128f2565b60405180910390fd5b80600560008573ffffffffffffffffffffffffffffffffffffffff1673ffffffffffffffffffffffffffffffffffffffff16815260200190815260200160002060008473ffffffffffffffffffffffffffffffffffffffff1673ffffffffffffffffffffffffffffffffffffffff16815260200190815260200160002060006101000a81548160ff0219169083151502179055508173ffffffffffffffffffffffffffffffffffffffff168373ffffffffffffffffffffffffffffffffffffffff167f17307eab39ab6107e8899845ad3d59bd9653f200f220920489ca2b5937696c318360405161156e9190611b00565b60405180910390a3505050565b611586848484610f38565b6115928484848461169f565b6115d1576040517f08c379a00000000000000000000000000000000000000000000000000000000081526004016115c890612984565b60405180910390fd5b50505050565b606060405180602001604052806000815250905090565b60606115f982610d2d565b611638576040517f08c379a000000000000000000000000000000000000000000000000000000000815260040161162f90612a16565b60405180910390fd5b60006116426115d7565b90506000815111611662576040518060200160405280600081525061168d565b8061166c84611826565b60405160200161167d9291906124a9565b6040516020818303038152906040525b915050919050565b505050565b505050565b60006116c08473ffffffffffffffffffffffffffffffffffffffff16611986565b15611819578373ffffffffffffffffffffffffffffffffffffffff1663150b7a026116e9610d99565b8786866040518563ffffffff1660e01b815260040161170b9493929190612a8b565b6020604051808303816000875af192505050801561174757506040513d601f19601f820116820180604052508101906117449190612aec565b60015b6117c9573d8060008114611777576040519150601f19603f3d011682016040523d82523d6000602084013e61177c565b606091505b5060008151036117c1576040517f08c379a00000000000000000000000000000000000000000000000000000000081526004016117b890612984565b60405180910390fd5b805181602001fd5b63150b7a0260e01b7bffffffffffffffffffffffffffffffffffffffffffffffffffffffff1916817bffffffffffffffffffffffffffffffffffffffffffffffffffffffff19161491505061181e565b600190505b949350505050565b60606000820361186d576040518060400160405280600181526020017f30000000000000000000000000000000000000000000000000000000000000008152509050611981565b600082905060005b6000821461189f57808061188890612b19565b915050600a826118989190612b90565b9150611875565b60008167ffffffffffffffff8111156118bb576118ba611e21565b5b6040519080825280601f01601f1916602001820160405280156118ed5781602001600182028036833780820191505090505b5090505b6000851461197a5760018261190691906126b2565b9150600a856119159190612bc1565b603061192191906126e6565b60f81b81838151811061193757611936612bf2565b5b60200101907effffffffffffffffffffffffffffffffffffffffffffffffffffffffffffff1916908160001a905350600a856119739190612b90565b94506118f1565b8093505050505b919050565b6000808273ffffffffffffffffffffffffffffffffffffffff163b119050919050565b8280546119b59061203e565b90600052602060002090601f0160209004810192826119d75760008555611a1e565b82601f106119f057805160ff1916838001178555611a1e565b82800160010185558215611a1e579182015b82811115611a1d578251825591602001919060010190611a02565b5b509050611a2b9190611a2f565b5090565b5b80821115611a48576000816000905550600101611a30565b5090565b6000604051905090565b600080fd5b600080fd5b60007fffffffff0000000000000000000000000000000000000000000000000000000082169050919050565b611a9581611a60565b8114611aa057600080fd5b50565b600081359050611ab281611a8c565b92915050565b600060208284031215611ace57611acd611a56565b5b6000611adc84828501611aa3565b91505092915050565b60008115159050919050565b611afa81611ae5565b82525050565b6000602082019050611b156000830184611af1565b92915050565b600081519050919050565b600082825260208201905092915050565b60005b83811015611b55578082015181840152602081019050611b3a565b83811115611b64576000848401525b50505050565b6000601f19601f8301169050919050565b6000611b8682611b1b565b611b908185611b26565b9350611ba0818560208601611b37565b611ba981611b6a565b840191505092915050565b60006020820190508181036000830152611bce8184611b7b565b905092915050565b6000819050919050565b611be981611bd6565b8114611bf457600080fd5b50565b600081359050611c0681611be0565b92915050565b600060208284031215611c2257611c21611a56565b5b6000611c3084828501611bf7565b91505092915050565b600073ffffffffffffffffffffffffffffffffffffffff82169050919050565b6000611c6482611c39565b9050919050565b611c7481611c59565b82525050565b6000602082019050611c8f6000830184611c6b565b92915050565b611c9e81611c59565b8114611ca957600080fd5b50565b600081359050611cbb81611c95565b92915050565b60008060408385031215611cd857611cd7611a56565b5b6000611ce685828601611cac565b9250506020611cf785828601611bf7565b9150509250929050565b600080600060608486031215611d1a57611d19611a56565b5b6000611d2886828701611cac565b9350506020611d3986828701611cac565b9250506040611d4a86828701611bf7565b9150509250925092565b600060208284031215611d6a57611d69611a56565b5b6000611d7884828501611cac565b91505092915050565b611d8a81611bd6565b82525050565b6000602082019050611da56000830184611d81565b92915050565b611db481611ae5565b8114611dbf57600080fd5b50565b600081359050611dd181611dab565b92915050565b60008060408385031215611dee57611ded611a56565b5b6000611dfc85828601611cac565b9250506020611e0d85828601611dc2565b9150509250929050565b600080fd5b600080fd5b7f4e487b7100000000000000000000000000000000000000000000000000000000600052604160045260246000fd5b611e5982611b6a565b810181811067ffffffffffffffff82111715611e7857611e77611e21565b5b80604052505050565b6000611e8b611a4c565b9050611e978282611e50565b919050565b600067ffffffffffffffff821115611eb757611eb6611e21565b5b611ec082611b6a565b9050602081019050919050565b82818337600083830152505050565b6000611eef611eea84611e9c565b611e81565b905082815260208101848484011115611f0b57611f0a611e1c565b5b611f16848285611ecd565b509392505050565b600082601f830112611f3357611f32611e17565b5b8135611f43848260208601611edc565b91505092915050565b60008060008060808587031215611f6657611f65611a56565b5b6000611f7487828801611cac565b9450506020611f8587828801611cac565b9350506040611f9687828801611bf7565b925050606085013567ffffffffffffffff811115611fb757611fb6611a5b565b5b611fc387828801611f1e565b91505092959194509250565b60008060408385031215611fe657611fe5611a56565b5b6000611ff485828601611cac565b925050602061200585828601611cac565b9150509250929050565b7f4e487b7100000000000000000000000000000000000000000000000000000000600052602260045260246000fd5b6000600282049050600182168061205657607f821691505b6020821081036120695761206861200f565b5b50919050565b7f4552433732313a20617070726f76656420717565727920666f72206e6f6e657860008201527f697374656e7420746f6b656e0000000000000000000000000000000000000000602082015250565b60006120cb602c83611b26565b91506120d68261206f565b604082019050919050565b600060208201905081810360008301526120fa816120be565b9050919050565b7f4552433732313a20617070726f76616c20746f2063757272656e74206f776e6560008201527f7200000000000000000000000000000000000000000000000000000000000000602082015250565b600061215d602183611b26565b915061216882612101565b604082019050919050565b6000602082019050818103600083015261218c81612150565b9050919050565b7f4552433732313a20617070726f76652063616c6c6572206973206e6f74206f7760008201527f6e6572206e6f7220617070726f76656420666f7220616c6c0000000000000000602082015250565b60006121ef603883611b26565b91506121fa82612193565b604082019050919050565b6000602082019050818103600083015261221e816121e2565b9050919050565b7f4552433732313a207472616e736665722063616c6c6572206973206e6f74206f60008201527f776e6572206e6f7220617070726f766564000000000000000000000000000000602082015250565b6000612281603183611b26565b915061228c82612225565b604082019050919050565b600060208201905081810360008301526122b081612274565b9050919050565b7f4552433732313a206f776e657220717565727920666f72206e6f6e657869737460008201527f656e7420746f6b656e0000000000000000000000000000000000000000000000602082015250565b6000612313602983611b26565b915061231e826122b7565b604082019050919050565b6000602082019050818103600083015261234281612306565b9050919050565b7f4552433732313a2062616c616e636520717565727920666f7220746865207a6560008201527f726f206164647265737300000000000000000000000000000000000000000000602082015250565b60006123a5602a83611b26565b91506123b082612349565b604082019050919050565b600060208201905081810360008301526123d481612398565b9050919050565b7f45524337323155524953746f726167653a2055524920717565727920666f722060008201527f6e6f6e6578697374656e7420746f6b656e000000000000000000000000000000602082015250565b6000612437603183611b26565b9150612442826123db565b604082019050919050565b600060208201905081810360008301526124668161242a565b9050919050565b600081905092915050565b600061248382611b1b565b61248d818561246d565b935061249d818560208601611b37565b80840191505092915050565b60006124b58285612478565b91506124c18284612478565b91508190509392505050565b7f4552433732313a206f70657261746f7220717565727920666f72206e6f6e657860008201527f697374656e7420746f6b656e0000000000000000000000000000000000000000602082015250565b6000612529602c83611b26565b9150612534826124cd565b604082019050919050565b600060208201905081810360008301526125588161251c565b9050919050565b7f4552433732313a207472616e736665722066726f6d20696e636f72726563742060008201527f6f776e6572000000000000000000000000000000000000000000000000000000602082015250565b60006125bb602583611b26565b91506125c68261255f565b604082019050919050565b600060208201905081810360008301526125ea816125ae565b9050919050565b7f4552433732313a207472616e7366657220746f20746865207a65726f2061646460008201527f7265737300000000000000000000000000000000000000000000000000000000602082015250565b600061264d602483611b26565b9150612658826125f1565b604082019050919050565b6000602082019050818103600083015261267c81612640565b9050919050565b7f4e487b7100000000000000000000000000000000000000000000000000000000600052601160045260246000fd5b60006126bd82611bd6565b91506126c883611bd6565b9250828210156126db576126da612683565b5b828203905092915050565b60006126f182611bd6565b91506126fc83611bd6565b9250827fffffffffffffffffffffffffffffffffffffffffffffffffffffffffffffffff0382111561273157612730612683565b5b828201905092915050565b7f4552433732313a206d696e7420746f20746865207a65726f2061646472657373600082015250565b6000612772602083611b26565b915061277d8261273c565b602082019050919050565b600060208201905081810360008301526127a181612765565b9050919050565b7f4552433732313a20746f6b656e20616c7265616479206d696e74656400000000600082015250565b60006127de601c83611b26565b91506127e9826127a8565b602082019050919050565b6000602082019050818103600083015261280d816127d1565b9050919050565b7f45524337323155524953746f726167653a2055524920736574206f66206e6f6e60008201527f6578697374656e7420746f6b656e000000000000000000000000000000000000602082015250565b6000612870602e83611b26565b915061287b82612814565b604082019050919050565b6000602082019050818103600083015261289f81612863565b9050919050565b7f4552433732313a20617070726f766520746f2063616c6c657200000000000000600082015250565b60006128dc601983611b26565b91506128e7826128a6565b602082019050919050565b6000602082019050818103600083015261290b816128cf565b9050919050565b7f4552433732313a207472616e7366657220746f206e6f6e20455243373231526560008201527f63656976657220696d706c656d656e7465720000000000000000000000000000602082015250565b600061296e603283611b26565b915061297982612912565b604082019050919050565b6000602082019050818103600083015261299d81612961565b9050919050565b7f4552433732314d657461646174613a2055524920717565727920666f72206e6f60008201527f6e6578697374656e7420746f6b656e0000000000000000000000000000000000602082015250565b6000612a00602f83611b26565b9150612a0b826129a4565b604082019050919050565b60006020820190508181036000830152612a2f816129f3565b9050919050565b600081519050919050565b600082825260208201905092915050565b6000612a5d82612a36565b612a678185612a41565b9350612a77818560208601611b37565b612a8081611b6a565b840191505092915050565b6000608082019050612aa06000830187611c6b565b612aad6020830186611c6b565b612aba6040830185611d81565b8181036060830152612acc8184612a52565b905095945050505050565b600081519050612ae681611a8c565b92915050565b600060208284031215612b0257612b01611a56565b5b6000612b1084828501612ad7565b91505092915050565b6000612b2482611bd6565b91507fffffffffffffffffffffffffffffffffffffffffffffffffffffffffffffffff8203612b5657612b55612683565b5b600182019050919050565b7f4e487b7100000000000000000000000000000000000000000000000000000000600052601260045260246000fd5b6000612b9b82611bd6565b9150612ba683611bd6565b925082612bb657612bb5612b61565b5b828204905092915050565b6000612bcc82611bd6565b9150612bd783611bd6565b925082612be757612be6612b61565b5b828206905092915050565b7f4e487b7100000000000000000000000000000000000000000000000000000000600052603260045260246000fdfea2646970667358221220771a34ea476588dd82279847477655339e5309a4f02df1a967659f4106fcb10064736f6c634300080d003368747470733a2f2f697066732e696f2f697066732f516d65776d4c645068596148466f4446765a61627161463342596754475646646943415042454c56623269594d643f66696c656e616d653d6b6974746965735f636c617373332e706e6768747470733a2f2f697066732e696f2f697066732f516d62595332394241676241556f347a4150716b5361596f5133365843626b7762683967766f58614b4a516d53543f66696c656e616d653d6b6974746965735f636c617373322e706e6768747470733a2f2f697066732e696f2f697066732f516d5775574d654471775943396654415953594d4d3142516b4c73743646366a6f507447574d6b413266484266713f66696c656e616d653d6b6974746965735f636c617373352e706e6768747470733a2f2f697066732e696f2f697066732f516d504b666d77626865635543707352666256614c4c416e61585a514244373539794650643933324238436d624b3f66696c656e616d653d6b6974746965735f636c617373362e706e6768747470733a2f2f697066732e696f2f697066732f516d653458444a56713272613270395268427239435448504536476a366476326746514358524c6b4544414b626b3f66696c656e616d653d6b6974746965735f636c617373372e706e6768747470733a2f2f697066732e696f2f697066732f516d626351345938725872354770376a474e6653596a736e4b74756d36793241786d5a344b336b61436168326a333f66696c656e616d653d6b6974746965735f636c617373342e706e6768747470733a2f2f697066732e696f2f697066732f516d564e32425363574c6842776a58504631673366316331554d62534c585166656b75464b6a62575446463635653f66696c656e616d653d6b6974746965735f636c617373312e706e6768747470733a2f2f697066732e696f2f697066732f516d616e63716e725379644d63723776344c4d7748535856575a636e596a6559514d5971357845635573344336573f66696c656e616d653d6b6974746965735f636c617373382e706e67a2646970667358221220c0d97fdee9335b47a0cf8dc4ca4d7197ae52ebd31b305c3fa54a828367c9f0f664736f6c634300080d0033",
  "immutableReferences": {},
  "source": "// SPDX-License-Identifier: MIT\npragma solidity 0.8.13;\n\nimport \"./NFTManager.sol\";\n\ncontract TRY{\n\n    //create a structure ticket\n    struct Ticket {\n        address buyer;\n        uint[5] numbers;\n        uint powerball;\n    }\n\n    uint constant K = 32; \n    uint public blockClosed; //last block in which the lottery is open\n    uint M; //block duration (given by parameter in constructor)\n    address[] users; //user list\n    Ticket[] tickets; //user's tickets\n    bool public activeLottery;\n    bool public activeRound; //true if a round is active, false otherwise\n    bool public deactivateLottery; \n    address public lottery_manager; //lottery manager address\n    uint[6] public lastDraw;\n    mapping(address => uint) public winnerMessage;\n    address[] winnerUser;\n    uint ticket_price = 1000000000000000000; //1 eth\n    NFTManager NFT;\n\n    event StartLottery();\n    event StartRound();\n    event TicketBought(address buyer, uint[5] number, uint powerball);\n    event Draw(uint[6] numbers);\n    event TicketWinner(address buyer, uint class);\n    event EndRound();\n    event EndLottery();\n\n    constructor(){\n        activeLottery = false;\n        deactivateLottery = false;\n        activeRound = false;\n    }\n\n    function startLottery(uint _M) public{\n        lottery_manager = msg.sender;\n        M = _M;\n        blockClosed = block.number + M; \n        NFT =  new NFTManager();\n\n        for(uint i = 1; i < 8; i++)\n        {\n            mint(i);\n        }\n\n        activeLottery = true;\n        activeRound = true;\n\n        emit StartLottery();\n    }\n\n    function startNewRound() \n        public\n    {\n        require(lottery_manager == msg.sender, \"You're not the lottery manager\");\n        require(activeRound == false, \"Round already started!\");\n\n        //reset the new closed block\n        blockClosed = block.number + M;\n\n        activeRound = true;\n        emit StartRound();\n    }\n\n    function buy(uint[5] memory _numbers, uint _powerball) \n        public\n        payable\n    {\n\n        //check if the round is activeRound\n        require(activeRound == true, \"Lottery closed\");\n        require(blockClosed >= block.number, \"Lottery closed\");\n        \n        //check if the value is enough to buy a ticket\n        uint money = msg.value;\n        require(money >= ticket_price, \"Value too small\");\n\n        //check if the numbers are correct\n        require(_numbers.length == 5, \"Insert 5 number\");\n        require(_powerball >= 1 && _powerball <= 26, \"Insert a correct value for powerball\");\n        for(uint i = 0; i < _numbers.length; i++)\n            require(_numbers[i] >= 1 && _numbers[i] <= 69, \"Insert a correct value for numbers\");\n\n        //create an istance of ticket\n        Ticket memory ticket = Ticket({buyer : msg.sender, numbers : _numbers, powerball : _powerball});\n        tickets.push(ticket);\n\n        //give the change to buyer\n        if(money > ticket_price)\n            payable(msg.sender).transfer(money - ticket_price);\n\n        emit TicketBought(msg.sender, _numbers, _powerball);\n    }\n\n    function drawNumbers()\n        internal\n        returns(uint256[6] memory)\n    {\n        require(lottery_manager == msg.sender, \"You're not the lottery manager\");\n        require(blockClosed <= block.number, \"Lottery not yet closed\");\n\n        uint256[6] memory expandedValues;\n        uint blockNumber = block.number + K;\n        uint previous = 0;\n\n        for (uint256 i = 0; i < 6; i++) \n        {   \n            if (i != 5)\n                expandedValues[i] = (uint256(keccak256(abi.encode(blockNumber, previous))) % 69) + 1;\n            else\n                expandedValues[i] = (uint256(keccak256(abi.encode(blockNumber, previous))) % 29) + 1;\n\n            for(uint j = 0; j < i; j++)\n                if (expandedValues[j] == expandedValues[i])\n                    i--;\n\n            previous = expandedValues[i];\n        }\n\n        emit Draw(expandedValues);\n        lastDraw = expandedValues;\n\n        return expandedValues;\n    }\n\n    function givePrizes()\n        internal\n    {\n        require(lottery_manager == msg.sender, \"You're not the lottery manager\");\n        //require(blockClosed <= block.number, \"Lottery not yet closed\");\n        \n        uint256[6] memory drawNumber = drawNumbers();\n\n        for(uint t = 0; t < tickets.length; t++)\n        {\n            uint numberCount = 0;\n            uint powerball = 0;\n            if(tickets[t].powerball == drawNumber[5])\n                powerball = 1;\n            for(uint i = 0; i < 5; i++)\n                for(uint j = 0; j < 5; j++)\n                    if(tickets[t].numbers[i] == drawNumber[j])\n                        numberCount++;\n            \n            uint class = getClass(numberCount, powerball);\n\n            //case in which the user has won the lottery\n            if(class != 0)\n            {\n                //assign the NFT\n                NFT.assignNFT(tickets[t].buyer, class);\n\n                //mint new NFT of the same class\n                mint(class);\n\n                //emit the WinnerTicket event\n                emit TicketWinner(tickets[t].buyer, class);\n\n                //add the winner message\n                //winnerMessage[tickets[t].buyer] = class;\n                //winnerUser.push(tickets[t].buyer);\n            }\n        }\n    }\n\n    function mint(uint class) \n        internal\n    {\n        require(lottery_manager == msg.sender, \"You're not the lottery manager\");\n\n        NFT.mintNFT(class);\n    }\n\n    function closeLottery()\n        public\n        payable\n    {\n        require(lottery_manager == msg.sender, \"You're not the lottery manager\");\n\n        if(blockClosed > block.number)\n            //refund the ticket_price \n            for(uint i = 0; i < tickets.length; i++)\n                payable(tickets[uint(i)].buyer).transfer(ticket_price);\n\n        emit EndLottery();\n\n        deactivateLottery = true;\n\n        //destruct the contract\n        selfdestruct(payable(lottery_manager));\n    }\n\n    function closeRound()\n        public\n        payable\n    {\n        require(lottery_manager == msg.sender, \"You're not the lottery manager\");\n        require(activeRound == true, \"Round already closed!\");\n        require(blockClosed < block.number, \"Round not yet finished!\");\n\n        //give prizes to users\n        givePrizes();\n\n        //give the current contract balance to the lottery manager\n        payable(lottery_manager).transfer(address(this).balance);\n\n        //delete all the data structure\n        delete tickets;\n        //for(uint i = 0; i < winnerUser.length; i++)\n            //delete winnerMessage[winnerUser[i]];\n        //delete winnerUser;\n\n        activeRound = false;\n        emit EndRound();\n    }\n\n    function getClass(uint number, uint powerball) \n        internal\n        returns(uint) \n    {\n        if(number == 0 && powerball == 1)\n            return uint(8);\n        else  \n            if(number == 1)\n                return uint(8 - (number + powerball));\n            else\n                if(number == 2)\n                    return uint(8 - (number + powerball));\n                else\n                    if(number == 3)\n                        return uint(8 - (number + powerball));\n                    else\n                        if(number == 4)\n                            return uint(8 - (number + powerball));\n                        else\n                            if(number == 5 && powerball == 0)\n                                return uint(2);\n                            else\n                                if(number == 5 && powerball == 1)\n                                    return uint(1);\n                                else\n                                    return uint(0);\n    }\n}",
  "sourcePath": "/Users/paololanza/Desktop/p2pgit/P2P-BLOCKCHAIN/FinalTerm/contracts/TRY.sol",
  "compiler": {
    "name": "solc",
    "version": "0.8.13+commit.abaa5c0e.Emscripten.clang"
  },
  "schemaVersion": "3.4.7",
  "updatedAt": "2022-07-07T14:02:40.266Z",
  "networkType": "ethereum",
  "devdoc": {
    "kind": "dev",
    "methods": {},
    "version": 1
  },
  "userdoc": {
    "kind": "user",
    "methods": {},
    "version": 1
  }
}