{
  "contractName": "TRY",
  "abi": [
    {
      "inputs": [],
      "stateMutability": "nonpayable",
      "type": "constructor"
    },
    {
      "anonymous": false,
      "inputs": [
        {
          "indexed": false,
          "internalType": "uint256[6]",
          "name": "numbers",
          "type": "uint256[6]"
        }
      ],
      "name": "Draw",
      "type": "event"
    },
    {
      "anonymous": false,
      "inputs": [],
      "name": "EndLottery",
      "type": "event"
    },
    {
      "anonymous": false,
      "inputs": [],
      "name": "EndRound",
      "type": "event"
    },
    {
      "anonymous": false,
      "inputs": [],
      "name": "StartRound",
      "type": "event"
    },
    {
      "anonymous": false,
      "inputs": [
        {
          "indexed": false,
          "internalType": "address",
          "name": "buyer",
          "type": "address"
        },
        {
          "indexed": false,
          "internalType": "uint256[5]",
          "name": "number",
          "type": "uint256[5]"
        },
        {
          "indexed": false,
          "internalType": "uint256",
          "name": "powerball",
          "type": "uint256"
        }
      ],
      "name": "TicketBought",
      "type": "event"
    },
    {
      "anonymous": false,
      "inputs": [
        {
          "indexed": false,
          "internalType": "address",
          "name": "buyer",
          "type": "address"
        },
        {
          "indexed": false,
          "internalType": "uint256",
          "name": "class",
          "type": "uint256"
        }
      ],
      "name": "TicketWinner",
      "type": "event"
    },
    {
      "inputs": [],
      "name": "activeLottery",
      "outputs": [
        {
          "internalType": "bool",
          "name": "",
          "type": "bool"
        }
      ],
      "stateMutability": "view",
      "type": "function",
      "constant": true
    },
    {
      "inputs": [],
      "name": "activeRound",
      "outputs": [
        {
          "internalType": "bool",
          "name": "",
          "type": "bool"
        }
      ],
      "stateMutability": "view",
      "type": "function",
      "constant": true
    },
    {
      "inputs": [],
      "name": "blockClosed",
      "outputs": [
        {
          "internalType": "uint256",
          "name": "",
          "type": "uint256"
        }
      ],
      "stateMutability": "view",
      "type": "function",
      "constant": true
    },
    {
      "inputs": [],
      "name": "deactivateLottery",
      "outputs": [
        {
          "internalType": "bool",
          "name": "",
          "type": "bool"
        }
      ],
      "stateMutability": "view",
      "type": "function",
      "constant": true
    },
    {
      "inputs": [],
      "name": "lottery_manager",
      "outputs": [
        {
          "internalType": "address",
          "name": "",
          "type": "address"
        }
      ],
      "stateMutability": "view",
      "type": "function",
      "constant": true
    },
    {
      "inputs": [
        {
          "internalType": "uint256",
          "name": "_M",
          "type": "uint256"
        }
      ],
      "name": "startLottery",
      "outputs": [],
      "stateMutability": "nonpayable",
      "type": "function"
    },
    {
      "inputs": [],
      "name": "startNewRound",
      "outputs": [],
      "stateMutability": "nonpayable",
      "type": "function"
    },
    {
      "inputs": [
        {
          "internalType": "uint256[5]",
          "name": "_numbers",
          "type": "uint256[5]"
        },
        {
          "internalType": "uint256",
          "name": "_powerball",
          "type": "uint256"
        }
      ],
      "name": "buy",
      "outputs": [],
      "stateMutability": "payable",
      "type": "function",
      "payable": true
    },
    {
      "inputs": [],
      "name": "closeLottery",
      "outputs": [],
      "stateMutability": "payable",
      "type": "function",
      "payable": true
    },
    {
      "inputs": [],
      "name": "closeRound",
      "outputs": [],
      "stateMutability": "payable",
      "type": "function",
      "payable": true
    }
  ],
  "bytecode": "0x6080604052670de0b6b3a764000060055534801561001c57600080fd5b506000600460006101000a81548160ff0219169083151502179055506000600460026101000a81548160ff021916908315150217905550615602806100626000396000f3fe6080604052600436106200009e5760003560e01c80639fed038311620000615780639fed0383146200016f578063bd85948c146200019f578063c6bec93a14620001b9578063e278fe6f14620001e7578063f77a1d0e14620001f3576200009e565b80631174fed914620000a357806311f0281e14620000d357806320e909d514620001035780636fd0981614620001335780638b734fbb146200013f575b600080fd5b348015620000b057600080fd5b50620000bb62000213565b604051620000ca9190620016ed565b60405180910390f35b348015620000e057600080fd5b50620000eb62000239565b604051620000fa919062001727565b60405180910390f35b3480156200011057600080fd5b506200011b6200024c565b6040516200012a919062001727565b60405180910390f35b6200013d6200025f565b005b3480156200014c57600080fd5b50620001576200043a565b6040516200016691906200175f565b60405180910390f35b3480156200017c57600080fd5b506200018762000440565b60405162000196919062001727565b60405180910390f35b348015620001ac57600080fd5b50620001b762000453565b005b348015620001c657600080fd5b50620001e56004803603810190620001df9190620017bc565b6200059e565b005b620001f162000700565b005b6200021160048036038101906200020b919062001951565b62000900565b005b600460039054906101000a900473ffffffffffffffffffffffffffffffffffffffff1681565b600460019054906101000a900460ff1681565b600460029054906101000a900460ff1681565b3373ffffffffffffffffffffffffffffffffffffffff16600460039054906101000a900473ffffffffffffffffffffffffffffffffffffffff1673ffffffffffffffffffffffffffffffffffffffff1614620002f2576040517f08c379a0000000000000000000000000000000000000000000000000000000008152600401620002e990620019f9565b60405180910390fd5b436000541115620003b85760005b600380549050811015620003b6576003818154811062000325576200032462001a1b565b5b906000526020600020906007020160000160009054906101000a900473ffffffffffffffffffffffffffffffffffffffff1673ffffffffffffffffffffffffffffffffffffffff166108fc6005549081150290604051600060405180830381858888f193505050501580156200039f573d6000803e3d6000fd5b508080620003ad9062001a79565b91505062000300565b505b7fb04a3f1c056dddc94d520d253684ddea9adc60cd7aeb3b1c893f88575730a28a60405160405180910390a16001600460026101000a81548160ff021916908315150217905550600460039054906101000a900473ffffffffffffffffffffffffffffffffffffffff1673ffffffffffffffffffffffffffffffffffffffff16ff5b60005481565b600460009054906101000a900460ff1681565b3373ffffffffffffffffffffffffffffffffffffffff16600460039054906101000a900473ffffffffffffffffffffffffffffffffffffffff1673ffffffffffffffffffffffffffffffffffffffff1614620004e6576040517f08c379a0000000000000000000000000000000000000000000000000000000008152600401620004dd90620019f9565b60405180910390fd5b60001515600460019054906101000a900460ff161515146200053f576040517f08c379a0000000000000000000000000000000000000000000000000000000008152600401620005369062001b16565b60405180910390fd5b600154436200054f919062001b38565b6000819055506001600460016101000a81548160ff0219169083151502179055507faa7d75688cd47a746e56afc712fbba4911006e7a3c49e61732dbf614fbb7836d60405160405180910390a1565b6001600460016101000a81548160ff02191690831515021790555033600460036101000a81548173ffffffffffffffffffffffffffffffffffffffff021916908373ffffffffffffffffffffffffffffffffffffffff160217905550806001819055506001544362000611919062001b38565b600081905550604051620006259062001571565b604051809103906000f08015801562000642573d6000803e3d6000fd5b50600660006101000a81548173ffffffffffffffffffffffffffffffffffffffff021916908373ffffffffffffffffffffffffffffffffffffffff1602179055506000600190505b6008811015620006b5576200069f8162000ca9565b8080620006ac9062001a79565b9150506200068a565b506001600460006101000a81548160ff0219169083151502179055507faa7d75688cd47a746e56afc712fbba4911006e7a3c49e61732dbf614fbb7836d60405160405180910390a150565b3373ffffffffffffffffffffffffffffffffffffffff16600460039054906101000a900473ffffffffffffffffffffffffffffffffffffffff1673ffffffffffffffffffffffffffffffffffffffff161462000793576040517f08c379a00000000000000000000000000000000000000000000000000000000081526004016200078a90620019f9565b60405180910390fd5b60011515600460019054906101000a900460ff16151514620007ec576040517f08c379a0000000000000000000000000000000000000000000000000000000008152600401620007e39062001be5565b60405180910390fd5b436000541062000833576040517f08c379a00000000000000000000000000000000000000000000000000000000081526004016200082a9062001c57565b60405180910390fd5b6200083d62000dd0565b600460039054906101000a900473ffffffffffffffffffffffffffffffffffffffff1673ffffffffffffffffffffffffffffffffffffffff166108fc479081150290604051600060405180830381858888f19350505050158015620008a6573d6000803e3d6000fd5b5060036000620008b791906200157f565b6000600460016101000a81548160ff0219169083151502179055507f35fde02d7762e0db955cf7ca04d779ccb58ca18a01f25905c08f02f72e37178160405160405180910390a1565b60011515600460019054906101000a900460ff1615151462000959576040517f08c379a0000000000000000000000000000000000000000000000000000000008152600401620009509062001cc9565b60405180910390fd5b4360005411620009a0576040517f08c379a0000000000000000000000000000000000000000000000000000000008152600401620009979062001cc9565b60405180910390fd5b6000349050600554811015620009ed576040517f08c379a0000000000000000000000000000000000000000000000000000000008152600401620009e49062001d3b565b60405180910390fd5b6005801462000a33576040517f08c379a000000000000000000000000000000000000000000000000000000000815260040162000a2a9062001dad565b60405180910390fd5b6001821015801562000a465750601a8211155b62000a88576040517f08c379a000000000000000000000000000000000000000000000000000000000815260040162000a7f9062001e45565b60405180910390fd5b60005b600581101562000b3457600184826005811062000aad5762000aac62001a1b565b5b60200201511015801562000adc5750604584826005811062000ad45762000ad362001a1b565b5b602002015111155b62000b1e576040517f08c379a000000000000000000000000000000000000000000000000000000000815260040162000b159062001edd565b60405180910390fd5b808062000b2b9062001a79565b91505062000a8b565b50600060405180606001604052803373ffffffffffffffffffffffffffffffffffffffff168152602001858152602001848152509050600381908060018154018082558091505060019003906000526020600020906007020160009091909190915060008201518160000160006101000a81548173ffffffffffffffffffffffffffffffffffffffff021916908373ffffffffffffffffffffffffffffffffffffffff16021790555060208201518160010190600562000bf6929190620015a5565b5060408201518160060155505060055482111562000c66573373ffffffffffffffffffffffffffffffffffffffff166108fc6005548462000c38919062001eff565b9081150290604051600060405180830381858888f1935050505015801562000c64573d6000803e3d6000fd5b505b7fd40d0e98321bdbf3d35561e72b66863312df2c31d5ac2c275e80db6160184e5a33858560405162000c9b9392919062001ff5565b60405180910390a150505050565b3373ffffffffffffffffffffffffffffffffffffffff16600460039054906101000a900473ffffffffffffffffffffffffffffffffffffffff1673ffffffffffffffffffffffffffffffffffffffff161462000d3c576040517f08c379a000000000000000000000000000000000000000000000000000000000815260040162000d3390620019f9565b60405180910390fd5b600660009054906101000a900473ffffffffffffffffffffffffffffffffffffffff1673ffffffffffffffffffffffffffffffffffffffff166392642744826040518263ffffffff1660e01b815260040162000d9991906200175f565b600060405180830381600087803b15801562000db457600080fd5b505af115801562000dc9573d6000803e3d6000fd5b5050505050565b3373ffffffffffffffffffffffffffffffffffffffff16600460039054906101000a900473ffffffffffffffffffffffffffffffffffffffff1673ffffffffffffffffffffffffffffffffffffffff161462000e63576040517f08c379a000000000000000000000000000000000000000000000000000000000815260040162000e5a90620019f9565b60405180910390fd5b43600054111562000eab576040517f08c379a000000000000000000000000000000000000000000000000000000000815260040162000ea29062002082565b60405180910390fd5b600062000eb762001176565b905060005b60038054905081101562001172576000808360056006811062000ee45762000ee362001a1b565b5b60200201516003848154811062000f005762000eff62001a1b565b5b9060005260206000209060070201600601540362000f1d57600190505b60005b600581101562000fd55760005b600581101562000fbe5785816006811062000f4d5762000f4c62001a1b565b5b60200201516003868154811062000f695762000f6862001a1b565b5b9060005260206000209060070201600101836005811062000f8f5762000f8e62001a1b565b5b01540362000fa857838062000fa49062001a79565b9450505b808062000fb59062001a79565b91505062000f2d565b50808062000fcc9062001a79565b91505062000f20565b50600062000fe483836200144e565b9050600081146200115957600660009054906101000a900473ffffffffffffffffffffffffffffffffffffffff1673ffffffffffffffffffffffffffffffffffffffff1663c24132eb6003868154811062001044576200104362001a1b565b5b906000526020600020906007020160000160009054906101000a900473ffffffffffffffffffffffffffffffffffffffff16836040518363ffffffff1660e01b815260040162001096929190620020a4565b600060405180830381600087803b158015620010b157600080fd5b505af1158015620010c6573d6000803e3d6000fd5b50505050620010d58162000ca9565b7fa30883286d1b18a0a7e8754d2baf4c6b16e6de90c35578e0686e7c197a7ce353600385815481106200110d576200110c62001a1b565b5b906000526020600020906007020160000160009054906101000a900473ffffffffffffffffffffffffffffffffffffffff168260405162001150929190620020a4565b60405180910390a15b5050508080620011699062001a79565b91505062000ebc565b5050565b62001180620015ea565b3373ffffffffffffffffffffffffffffffffffffffff16600460039054906101000a900473ffffffffffffffffffffffffffffffffffffffff1673ffffffffffffffffffffffffffffffffffffffff161462001213576040517f08c379a00000000000000000000000000000000000000000000000000000000081526004016200120a90620019f9565b60405180910390fd5b4360005411156200125b576040517f08c379a0000000000000000000000000000000000000000000000000000000008152600401620012529062002082565b60405180910390fd5b62001265620015ea565b600060204362001276919062001b38565b90506000805b60068110156200140b5760058114620012fe57600160458484604051602001620012a8929190620020d1565b6040516020818303038152906040528051906020012060001c620012cd91906200212d565b620012d9919062001b38565b848260068110620012ef57620012ee62001a1b565b5b60200201818152505062001368565b6001601d848460405160200162001317929190620020d1565b6040516020818303038152906040528051906020012060001c6200133c91906200212d565b62001348919062001b38565b8482600681106200135e576200135d62001a1b565b5b6020020181815250505b60005b81811015620013d7578482600681106200138a576200138962001a1b565b5b6020020151858260068110620013a557620013a462001a1b565b5b602002015103620013c1578180620013bd9062002165565b9250505b8080620013ce9062001a79565b9150506200136b565b50838160068110620013ee57620013ed62001a1b565b5b602002015191508080620014029062001a79565b9150506200127c565b507f3ea6abb448621edc89dc8a920861362b57e85970eab6ff87dc41424b6ac6bb1b836040516200143d919062002223565b60405180910390a182935050505090565b60008083148015620014605750600182145b156200147057600890506200156b565b600183036200149d57818362001487919062001b38565b600862001495919062001eff565b90506200156b565b60028303620014ca578183620014b4919062001b38565b6008620014c2919062001eff565b90506200156b565b60038303620014f7578183620014e1919062001b38565b6008620014ef919062001eff565b90506200156b565b60048303620015245781836200150e919062001b38565b60086200151c919062001eff565b90506200156b565b600583148015620015355750600082145b156200154557600290506200156b565b600583148015620015565750600182145b156200156657600190506200156b565b600090505b92915050565b61338c806200224183390190565b5080546000825560070290600052602060002090810190620015a291906200160c565b50565b8260058101928215620015d7579160200282015b82811115620015d6578251825591602001919060010190620015b9565b5b509050620015e6919062001666565b5090565b6040518060c00160405280600690602082028036833780820191505090505090565b5b808211156200166257600080820160006101000a81549073ffffffffffffffffffffffffffffffffffffffff021916905560018201600062001650919062001685565b6006820160009055506007016200160d565b5090565b5b808211156200168157600081600090555060010162001667565b5090565b506000815560010160008155600101600081556001016000815560010160009055565b600073ffffffffffffffffffffffffffffffffffffffff82169050919050565b6000620016d582620016a8565b9050919050565b620016e781620016c8565b82525050565b6000602082019050620017046000830184620016dc565b92915050565b60008115159050919050565b62001721816200170a565b82525050565b60006020820190506200173e600083018462001716565b92915050565b6000819050919050565b620017598162001744565b82525050565b60006020820190506200177660008301846200174e565b92915050565b6000604051905090565b600080fd5b620017968162001744565b8114620017a257600080fd5b50565b600081359050620017b6816200178b565b92915050565b600060208284031215620017d557620017d462001786565b5b6000620017e584828501620017a5565b91505092915050565b600080fd5b6000601f19601f8301169050919050565b7f4e487b7100000000000000000000000000000000000000000000000000000000600052604160045260246000fd5b6200183e82620017f3565b810181811067ffffffffffffffff8211171562001860576200185f62001804565b5b80604052505050565b6000620018756200177c565b905062001883828262001833565b919050565b600067ffffffffffffffff821115620018a657620018a562001804565b5b602082029050919050565b600080fd5b6000620018cd620018c78462001888565b62001869565b90508060208402830185811115620018ea57620018e9620018b1565b5b835b81811015620019175780620019028882620017a5565b845260208401935050602081019050620018ec565b5050509392505050565b600082601f830112620019395762001938620017ee565b5b600562001948848285620018b6565b91505092915050565b60008060c083850312156200196b576200196a62001786565b5b60006200197b8582860162001921565b92505060a06200198e85828601620017a5565b9150509250929050565b600082825260208201905092915050565b7f596f75277265206e6f7420746865206c6f7474657279206d616e616765720000600082015250565b6000620019e1601e8362001998565b9150620019ee82620019a9565b602082019050919050565b6000602082019050818103600083015262001a1481620019d2565b9050919050565b7f4e487b7100000000000000000000000000000000000000000000000000000000600052603260045260246000fd5b7f4e487b7100000000000000000000000000000000000000000000000000000000600052601160045260246000fd5b600062001a868262001744565b91507fffffffffffffffffffffffffffffffffffffffffffffffffffffffffffffffff820362001abb5762001aba62001a4a565b5b600182019050919050565b7f526f756e6420616c726561647920737461727465642100000000000000000000600082015250565b600062001afe60168362001998565b915062001b0b8262001ac6565b602082019050919050565b6000602082019050818103600083015262001b318162001aef565b9050919050565b600062001b458262001744565b915062001b528362001744565b9250827fffffffffffffffffffffffffffffffffffffffffffffffffffffffffffffffff0382111562001b8a5762001b8962001a4a565b5b828201905092915050565b7f526f756e6420616c726561647920636c6f736564210000000000000000000000600082015250565b600062001bcd60158362001998565b915062001bda8262001b95565b602082019050919050565b6000602082019050818103600083015262001c008162001bbe565b9050919050565b7f526f756e64206e6f74207965742066696e697368656421000000000000000000600082015250565b600062001c3f60178362001998565b915062001c4c8262001c07565b602082019050919050565b6000602082019050818103600083015262001c728162001c30565b9050919050565b7f4c6f747465727920636c6f736564000000000000000000000000000000000000600082015250565b600062001cb1600e8362001998565b915062001cbe8262001c79565b602082019050919050565b6000602082019050818103600083015262001ce48162001ca2565b9050919050565b7f56616c756520746f6f20736d616c6c0000000000000000000000000000000000600082015250565b600062001d23600f8362001998565b915062001d308262001ceb565b602082019050919050565b6000602082019050818103600083015262001d568162001d14565b9050919050565b7f496e736572742035206e756d6265720000000000000000000000000000000000600082015250565b600062001d95600f8362001998565b915062001da28262001d5d565b602082019050919050565b6000602082019050818103600083015262001dc88162001d86565b9050919050565b7f496e73657274206120636f72726563742076616c756520666f7220706f77657260008201527f62616c6c00000000000000000000000000000000000000000000000000000000602082015250565b600062001e2d60248362001998565b915062001e3a8262001dcf565b604082019050919050565b6000602082019050818103600083015262001e608162001e1e565b9050919050565b7f496e73657274206120636f72726563742076616c756520666f72206e756d626560008201527f7273000000000000000000000000000000000000000000000000000000000000602082015250565b600062001ec560228362001998565b915062001ed28262001e67565b604082019050919050565b6000602082019050818103600083015262001ef88162001eb6565b9050919050565b600062001f0c8262001744565b915062001f198362001744565b92508282101562001f2f5762001f2e62001a4a565b5b828203905092915050565b600060059050919050565b600081905092915050565b6000819050919050565b62001f658162001744565b82525050565b600062001f79838362001f5a565b60208301905092915050565b6000602082019050919050565b62001f9d8162001f3a565b62001fa9818462001f45565b925062001fb68262001f50565b8060005b8381101562001fed57815162001fd1878262001f6b565b965062001fde8362001f85565b92505060018101905062001fba565b505050505050565b600060e0820190506200200c6000830186620016dc565b6200201b602083018562001f92565b6200202a60c08301846200174e565b949350505050565b7f4c6f7474657279206e6f742079657420636c6f73656400000000000000000000600082015250565b60006200206a60168362001998565b9150620020778262002032565b602082019050919050565b600060208201905081810360008301526200209d816200205b565b9050919050565b6000604082019050620020bb6000830185620016dc565b620020ca60208301846200174e565b9392505050565b6000604082019050620020e860008301856200174e565b620020f760208301846200174e565b9392505050565b7f4e487b7100000000000000000000000000000000000000000000000000000000600052601260045260246000fd5b60006200213a8262001744565b9150620021478362001744565b9250826200215a5762002159620020fe565b5b828206905092915050565b6000620021728262001744565b91506000820362002188576200218762001a4a565b5b600182039050919050565b600060069050919050565b600081905092915050565b6000819050919050565b6000602082019050919050565b620021cb8162002193565b620021d781846200219e565b9250620021e482620021a9565b8060005b838110156200221b578151620021ff878262001f6b565b96506200220c83620021b3565b925050600181019050620021e8565b505050505050565b600060c0820190506200223a6000830184620021c0565b9291505056fe60806040523480156200001157600080fd5b506040518060400160405280600a81526020017f4e46544d616e61676572000000000000000000000000000000000000000000008152506040518060400160405280600381526020017f49544d000000000000000000000000000000000000000000000000000000000081525081600090805190602001906200009692919062000319565b508060019080519060200190620000af92919062000319565b50505033600860006101000a81548173ffffffffffffffffffffffffffffffffffffffff021916908373ffffffffffffffffffffffffffffffffffffffff1602179055506040518060800160405280605f8152602001620032ce605f9139600960006001815260200190815260200160002090805190602001906200013692919062000319565b506040518060800160405280605f8152602001620030f3605f9139600960006002815260200190815260200160002090805190602001906200017a92919062000319565b506040518060800160405280605f815260200162003094605f913960096000600381526020019081526020016000209080519060200190620001be92919062000319565b506040518060800160405280605f81526020016200326f605f9139600960006004815260200190815260200160002090805190602001906200020292919062000319565b506040518060800160405280605f815260200162003152605f9139600960006005815260200190815260200160002090805190602001906200024692919062000319565b506040518060800160405280605f8152602001620031b1605f9139600960006006815260200190815260200160002090805190602001906200028a92919062000319565b506040518060800160405280605f815260200162003210605f913960096000600781526020019081526020016000209080519060200190620002ce92919062000319565b506040518060800160405280605f81526020016200332d605f9139600960006008815260200190815260200160002090805190602001906200031292919062000319565b506200042d565b8280546200032790620003f8565b90600052602060002090601f0160209004810192826200034b576000855562000397565b82601f106200036657805160ff191683800117855562000397565b8280016001018555821562000397579182015b828111156200039657825182559160200191906001019062000379565b5b509050620003a69190620003aa565b5090565b5b80821115620003c5576000816000905550600101620003ab565b5090565b7f4e487b7100000000000000000000000000000000000000000000000000000000600052602260045260246000fd5b600060028204905060018216806200041157607f821691505b602082108103620004275762000426620003c9565b5b50919050565b612c57806200043d6000396000f3fe608060405234801561001057600080fd5b50600436106100f55760003560e01c806370a0823111610097578063b88d4fde11610066578063b88d4fde14610282578063c24132eb1461029e578063c87b56dd146102ba578063e985e9c5146102ea576100f5565b806370a08231146101fc578063926427441461022c57806395d89b4114610248578063a22cb46514610266576100f5565b8063095ea7b3116100d3578063095ea7b31461017857806323b872dd1461019457806342842e0e146101b05780636352211e146101cc576100f5565b806301ffc9a7146100fa57806306fdde031461012a578063081812fc14610148575b600080fd5b610114600480360381019061010f9190611ab8565b61031a565b6040516101219190611b00565b60405180910390f35b6101326103fc565b60405161013f9190611bb4565b60405180910390f35b610162600480360381019061015d9190611c0c565b61048e565b60405161016f9190611c7a565b60405180910390f35b610192600480360381019061018d9190611cc1565b610513565b005b6101ae60048036038101906101a99190611d01565b61062a565b005b6101ca60048036038101906101c59190611d01565b61068a565b005b6101e660048036038101906101e19190611c0c565b6106aa565b6040516101f39190611c7a565b60405180910390f35b61021660048036038101906102119190611d54565b61075b565b6040516102239190611d90565b60405180910390f35b61024660048036038101906102419190611c0c565b610812565b005b610250610917565b60405161025d9190611bb4565b60405180910390f35b610280600480360381019061027b9190611dd7565b6109a9565b005b61029c60048036038101906102979190611f4c565b6109bf565b005b6102b860048036038101906102b39190611cc1565b610a21565b005b6102d460048036038101906102cf9190611c0c565b610ade565b6040516102e19190611bb4565b60405180910390f35b61030460048036038101906102ff9190611fcf565b610c2f565b6040516103119190611b00565b60405180910390f35b60007f80ac58cd000000000000000000000000000000000000000000000000000000007bffffffffffffffffffffffffffffffffffffffffffffffffffffffff1916827bffffffffffffffffffffffffffffffffffffffffffffffffffffffff191614806103e557507f5b5e139f000000000000000000000000000000000000000000000000000000007bffffffffffffffffffffffffffffffffffffffffffffffffffffffff1916827bffffffffffffffffffffffffffffffffffffffffffffffffffffffff1916145b806103f557506103f482610cc3565b5b9050919050565b60606000805461040b9061203e565b80601f01602080910402602001604051908101604052809291908181526020018280546104379061203e565b80156104845780601f1061045957610100808354040283529160200191610484565b820191906000526020600020905b81548152906001019060200180831161046757829003601f168201915b5050505050905090565b600061049982610d2d565b6104d8576040517f08c379a00000000000000000000000000000000000000000000000000000000081526004016104cf906120e1565b60405180910390fd5b6004600083815260200190815260200160002060009054906101000a900473ffffffffffffffffffffffffffffffffffffffff169050919050565b600061051e826106aa565b90508073ffffffffffffffffffffffffffffffffffffffff168373ffffffffffffffffffffffffffffffffffffffff160361058e576040517f08c379a000000000000000000000000000000000000000000000000000000000815260040161058590612173565b60405180910390fd5b8073ffffffffffffffffffffffffffffffffffffffff166105ad610d99565b73ffffffffffffffffffffffffffffffffffffffff1614806105dc57506105db816105d6610d99565b610c2f565b5b61061b576040517f08c379a000000000000000000000000000000000000000000000000000000000815260040161061290612205565b60405180910390fd5b6106258383610da1565b505050565b61063b610635610d99565b82610e5a565b61067a576040517f08c379a000000000000000000000000000000000000000000000000000000000815260040161067190612297565b60405180910390fd5b610685838383610f38565b505050565b6106a5838383604051806020016040528060008152506109bf565b505050565b6000806002600084815260200190815260200160002060009054906101000a900473ffffffffffffffffffffffffffffffffffffffff169050600073ffffffffffffffffffffffffffffffffffffffff168173ffffffffffffffffffffffffffffffffffffffff1603610752576040517f08c379a000000000000000000000000000000000000000000000000000000000815260040161074990612329565b60405180910390fd5b80915050919050565b60008073ffffffffffffffffffffffffffffffffffffffff168273ffffffffffffffffffffffffffffffffffffffff16036107cb576040517f08c379a00000000000000000000000000000000000000000000000000000000081526004016107c2906123bb565b60405180910390fd5b600360008373ffffffffffffffffffffffffffffffffffffffff1673ffffffffffffffffffffffffffffffffffffffff168152602001908152602001600020549050919050565b600061081e600761119e565b905061084c600860009054906101000a900473ffffffffffffffffffffffffffffffffffffffff16826111ac565b6108f18160096000858152602001908152602001600020805461086e9061203e565b80601f016020809104026020016040519081016040528092919081815260200182805461089a9061203e565b80156108e75780601f106108bc576101008083540402835291602001916108e7565b820191906000526020600020905b8154815290600101906020018083116108ca57829003601f168201915b5050505050611385565b80600b60008481526020019081526020016000208190555061091360076113f9565b5050565b6060600180546109269061203e565b80601f01602080910402602001604051908101604052809291908181526020018280546109529061203e565b801561099f5780601f106109745761010080835404028352916020019161099f565b820191906000526020600020905b81548152906001019060200180831161098257829003601f168201915b5050505050905090565b6109bb6109b4610d99565b838361140f565b5050565b6109d06109ca610d99565b83610e5a565b610a0f576040517f08c379a0000000000000000000000000000000000000000000000000000000008152600401610a0690612297565b60405180910390fd5b610a1b8484848461157b565b50505050565b610a61600860009054906101000a900473ffffffffffffffffffffffffffffffffffffffff1683600b60008581526020019081526020016000205461068a565b600a60008373ffffffffffffffffffffffffffffffffffffffff1673ffffffffffffffffffffffffffffffffffffffff168152602001908152602001600020600b60008381526020019081526020016000205490806001815401808255809150506001900390600052602060002001600090919091909150555050565b6060610ae982610d2d565b610b28576040517f08c379a0000000000000000000000000000000000000000000000000000000008152600401610b1f9061244d565b60405180910390fd5b6000600660008481526020019081526020016000208054610b489061203e565b80601f0160208091040260200160405190810160405280929190818152602001828054610b749061203e565b8015610bc15780601f10610b9657610100808354040283529160200191610bc1565b820191906000526020600020905b815481529060010190602001808311610ba457829003601f168201915b505050505090506000610bd26115d7565b90506000815103610be7578192505050610c2a565b600082511115610c1c578082604051602001610c049291906124a9565b60405160208183030381529060405292505050610c2a565b610c25846115ee565b925050505b919050565b6000600560008473ffffffffffffffffffffffffffffffffffffffff1673ffffffffffffffffffffffffffffffffffffffff16815260200190815260200160002060008373ffffffffffffffffffffffffffffffffffffffff1673ffffffffffffffffffffffffffffffffffffffff16815260200190815260200160002060009054906101000a900460ff16905092915050565b60007f01ffc9a7000000000000000000000000000000000000000000000000000000007bffffffffffffffffffffffffffffffffffffffffffffffffffffffff1916827bffffffffffffffffffffffffffffffffffffffffffffffffffffffff1916149050919050565b60008073ffffffffffffffffffffffffffffffffffffffff166002600084815260200190815260200160002060009054906101000a900473ffffffffffffffffffffffffffffffffffffffff1673ffffffffffffffffffffffffffffffffffffffff1614159050919050565b600033905090565b816004600083815260200190815260200160002060006101000a81548173ffffffffffffffffffffffffffffffffffffffff021916908373ffffffffffffffffffffffffffffffffffffffff160217905550808273ffffffffffffffffffffffffffffffffffffffff16610e14836106aa565b73ffffffffffffffffffffffffffffffffffffffff167f8c5be1e5ebec7d5bd14f71427d1e84f3dd0314c0f7b2291e5b200ac8c7c3b92560405160405180910390a45050565b6000610e6582610d2d565b610ea4576040517f08c379a0000000000000000000000000000000000000000000000000000000008152600401610e9b9061253f565b60405180910390fd5b6000610eaf836106aa565b90508073ffffffffffffffffffffffffffffffffffffffff168473ffffffffffffffffffffffffffffffffffffffff161480610ef15750610ef08185610c2f565b5b80610f2f57508373ffffffffffffffffffffffffffffffffffffffff16610f178461048e565b73ffffffffffffffffffffffffffffffffffffffff16145b91505092915050565b8273ffffffffffffffffffffffffffffffffffffffff16610f58826106aa565b73ffffffffffffffffffffffffffffffffffffffff1614610fae576040517f08c379a0000000000000000000000000000000000000000000000000000000008152600401610fa5906125d1565b60405180910390fd5b600073ffffffffffffffffffffffffffffffffffffffff168273ffffffffffffffffffffffffffffffffffffffff160361101d576040517f08c379a000000000000000000000000000000000000000000000000000000000815260040161101490612663565b60405180910390fd5b611028838383611695565b611033600082610da1565b6001600360008573ffffffffffffffffffffffffffffffffffffffff1673ffffffffffffffffffffffffffffffffffffffff168152602001908152602001600020600082825461108391906126b2565b925050819055506001600360008473ffffffffffffffffffffffffffffffffffffffff1673ffffffffffffffffffffffffffffffffffffffff16815260200190815260200160002060008282546110da91906126e6565b92505081905550816002600083815260200190815260200160002060006101000a81548173ffffffffffffffffffffffffffffffffffffffff021916908373ffffffffffffffffffffffffffffffffffffffff160217905550808273ffffffffffffffffffffffffffffffffffffffff168473ffffffffffffffffffffffffffffffffffffffff167fddf252ad1be2c89b69c2b068fc378daa952ba7f163c4a11628f55a4df523b3ef60405160405180910390a461119983838361169a565b505050565b600081600001549050919050565b600073ffffffffffffffffffffffffffffffffffffffff168273ffffffffffffffffffffffffffffffffffffffff160361121b576040517f08c379a000000000000000000000000000000000000000000000000000000000815260040161121290612788565b60405180910390fd5b61122481610d2d565b15611264576040517f08c379a000000000000000000000000000000000000000000000000000000000815260040161125b906127f4565b60405180910390fd5b61127060008383611695565b6001600360008473ffffffffffffffffffffffffffffffffffffffff1673ffffffffffffffffffffffffffffffffffffffff16815260200190815260200160002060008282546112c091906126e6565b92505081905550816002600083815260200190815260200160002060006101000a81548173ffffffffffffffffffffffffffffffffffffffff021916908373ffffffffffffffffffffffffffffffffffffffff160217905550808273ffffffffffffffffffffffffffffffffffffffff16600073ffffffffffffffffffffffffffffffffffffffff167fddf252ad1be2c89b69c2b068fc378daa952ba7f163c4a11628f55a4df523b3ef60405160405180910390a46113816000838361169a565b5050565b61138e82610d2d565b6113cd576040517f08c379a00000000000000000000000000000000000000000000000000000000081526004016113c490612886565b60405180910390fd5b806006600084815260200190815260200160002090805190602001906113f49291906119a9565b505050565b6001816000016000828254019250508190555050565b8173ffffffffffffffffffffffffffffffffffffffff168373ffffffffffffffffffffffffffffffffffffffff160361147d576040517f08c379a0000000000000000000000000000000000000000000000000000000008152600401611474906128f2565b60405180910390fd5b80600560008573ffffffffffffffffffffffffffffffffffffffff1673ffffffffffffffffffffffffffffffffffffffff16815260200190815260200160002060008473ffffffffffffffffffffffffffffffffffffffff1673ffffffffffffffffffffffffffffffffffffffff16815260200190815260200160002060006101000a81548160ff0219169083151502179055508173ffffffffffffffffffffffffffffffffffffffff168373ffffffffffffffffffffffffffffffffffffffff167f17307eab39ab6107e8899845ad3d59bd9653f200f220920489ca2b5937696c318360405161156e9190611b00565b60405180910390a3505050565b611586848484610f38565b6115928484848461169f565b6115d1576040517f08c379a00000000000000000000000000000000000000000000000000000000081526004016115c890612984565b60405180910390fd5b50505050565b606060405180602001604052806000815250905090565b60606115f982610d2d565b611638576040517f08c379a000000000000000000000000000000000000000000000000000000000815260040161162f90612a16565b60405180910390fd5b60006116426115d7565b90506000815111611662576040518060200160405280600081525061168d565b8061166c84611826565b60405160200161167d9291906124a9565b6040516020818303038152906040525b915050919050565b505050565b505050565b60006116c08473ffffffffffffffffffffffffffffffffffffffff16611986565b15611819578373ffffffffffffffffffffffffffffffffffffffff1663150b7a026116e9610d99565b8786866040518563ffffffff1660e01b815260040161170b9493929190612a8b565b6020604051808303816000875af192505050801561174757506040513d601f19601f820116820180604052508101906117449190612aec565b60015b6117c9573d8060008114611777576040519150601f19603f3d011682016040523d82523d6000602084013e61177c565b606091505b5060008151036117c1576040517f08c379a00000000000000000000000000000000000000000000000000000000081526004016117b890612984565b60405180910390fd5b805181602001fd5b63150b7a0260e01b7bffffffffffffffffffffffffffffffffffffffffffffffffffffffff1916817bffffffffffffffffffffffffffffffffffffffffffffffffffffffff19161491505061181e565b600190505b949350505050565b60606000820361186d576040518060400160405280600181526020017f30000000000000000000000000000000000000000000000000000000000000008152509050611981565b600082905060005b6000821461189f57808061188890612b19565b915050600a826118989190612b90565b9150611875565b60008167ffffffffffffffff8111156118bb576118ba611e21565b5b6040519080825280601f01601f1916602001820160405280156118ed5781602001600182028036833780820191505090505b5090505b6000851461197a5760018261190691906126b2565b9150600a856119159190612bc1565b603061192191906126e6565b60f81b81838151811061193757611936612bf2565b5b60200101907effffffffffffffffffffffffffffffffffffffffffffffffffffffffffffff1916908160001a905350600a856119739190612b90565b94506118f1565b8093505050505b919050565b6000808273ffffffffffffffffffffffffffffffffffffffff163b119050919050565b8280546119b59061203e565b90600052602060002090601f0160209004810192826119d75760008555611a1e565b82601f106119f057805160ff1916838001178555611a1e565b82800160010185558215611a1e579182015b82811115611a1d578251825591602001919060010190611a02565b5b509050611a2b9190611a2f565b5090565b5b80821115611a48576000816000905550600101611a30565b5090565b6000604051905090565b600080fd5b600080fd5b60007fffffffff0000000000000000000000000000000000000000000000000000000082169050919050565b611a9581611a60565b8114611aa057600080fd5b50565b600081359050611ab281611a8c565b92915050565b600060208284031215611ace57611acd611a56565b5b6000611adc84828501611aa3565b91505092915050565b60008115159050919050565b611afa81611ae5565b82525050565b6000602082019050611b156000830184611af1565b92915050565b600081519050919050565b600082825260208201905092915050565b60005b83811015611b55578082015181840152602081019050611b3a565b83811115611b64576000848401525b50505050565b6000601f19601f8301169050919050565b6000611b8682611b1b565b611b908185611b26565b9350611ba0818560208601611b37565b611ba981611b6a565b840191505092915050565b60006020820190508181036000830152611bce8184611b7b565b905092915050565b6000819050919050565b611be981611bd6565b8114611bf457600080fd5b50565b600081359050611c0681611be0565b92915050565b600060208284031215611c2257611c21611a56565b5b6000611c3084828501611bf7565b91505092915050565b600073ffffffffffffffffffffffffffffffffffffffff82169050919050565b6000611c6482611c39565b9050919050565b611c7481611c59565b82525050565b6000602082019050611c8f6000830184611c6b565b92915050565b611c9e81611c59565b8114611ca957600080fd5b50565b600081359050611cbb81611c95565b92915050565b60008060408385031215611cd857611cd7611a56565b5b6000611ce685828601611cac565b9250506020611cf785828601611bf7565b9150509250929050565b600080600060608486031215611d1a57611d19611a56565b5b6000611d2886828701611cac565b9350506020611d3986828701611cac565b9250506040611d4a86828701611bf7565b9150509250925092565b600060208284031215611d6a57611d69611a56565b5b6000611d7884828501611cac565b91505092915050565b611d8a81611bd6565b82525050565b6000602082019050611da56000830184611d81565b92915050565b611db481611ae5565b8114611dbf57600080fd5b50565b600081359050611dd181611dab565b92915050565b60008060408385031215611dee57611ded611a56565b5b6000611dfc85828601611cac565b9250506020611e0d85828601611dc2565b9150509250929050565b600080fd5b600080fd5b7f4e487b7100000000000000000000000000000000000000000000000000000000600052604160045260246000fd5b611e5982611b6a565b810181811067ffffffffffffffff82111715611e7857611e77611e21565b5b80604052505050565b6000611e8b611a4c565b9050611e978282611e50565b919050565b600067ffffffffffffffff821115611eb757611eb6611e21565b5b611ec082611b6a565b9050602081019050919050565b82818337600083830152505050565b6000611eef611eea84611e9c565b611e81565b905082815260208101848484011115611f0b57611f0a611e1c565b5b611f16848285611ecd565b509392505050565b600082601f830112611f3357611f32611e17565b5b8135611f43848260208601611edc565b91505092915050565b60008060008060808587031215611f6657611f65611a56565b5b6000611f7487828801611cac565b9450506020611f8587828801611cac565b9350506040611f9687828801611bf7565b925050606085013567ffffffffffffffff811115611fb757611fb6611a5b565b5b611fc387828801611f1e565b91505092959194509250565b60008060408385031215611fe657611fe5611a56565b5b6000611ff485828601611cac565b925050602061200585828601611cac565b9150509250929050565b7f4e487b7100000000000000000000000000000000000000000000000000000000600052602260045260246000fd5b6000600282049050600182168061205657607f821691505b6020821081036120695761206861200f565b5b50919050565b7f4552433732313a20617070726f76656420717565727920666f72206e6f6e657860008201527f697374656e7420746f6b656e0000000000000000000000000000000000000000602082015250565b60006120cb602c83611b26565b91506120d68261206f565b604082019050919050565b600060208201905081810360008301526120fa816120be565b9050919050565b7f4552433732313a20617070726f76616c20746f2063757272656e74206f776e6560008201527f7200000000000000000000000000000000000000000000000000000000000000602082015250565b600061215d602183611b26565b915061216882612101565b604082019050919050565b6000602082019050818103600083015261218c81612150565b9050919050565b7f4552433732313a20617070726f76652063616c6c6572206973206e6f74206f7760008201527f6e6572206e6f7220617070726f76656420666f7220616c6c0000000000000000602082015250565b60006121ef603883611b26565b91506121fa82612193565b604082019050919050565b6000602082019050818103600083015261221e816121e2565b9050919050565b7f4552433732313a207472616e736665722063616c6c6572206973206e6f74206f60008201527f776e6572206e6f7220617070726f766564000000000000000000000000000000602082015250565b6000612281603183611b26565b915061228c82612225565b604082019050919050565b600060208201905081810360008301526122b081612274565b9050919050565b7f4552433732313a206f776e657220717565727920666f72206e6f6e657869737460008201527f656e7420746f6b656e0000000000000000000000000000000000000000000000602082015250565b6000612313602983611b26565b915061231e826122b7565b604082019050919050565b6000602082019050818103600083015261234281612306565b9050919050565b7f4552433732313a2062616c616e636520717565727920666f7220746865207a6560008201527f726f206164647265737300000000000000000000000000000000000000000000602082015250565b60006123a5602a83611b26565b91506123b082612349565b604082019050919050565b600060208201905081810360008301526123d481612398565b9050919050565b7f45524337323155524953746f726167653a2055524920717565727920666f722060008201527f6e6f6e6578697374656e7420746f6b656e000000000000000000000000000000602082015250565b6000612437603183611b26565b9150612442826123db565b604082019050919050565b600060208201905081810360008301526124668161242a565b9050919050565b600081905092915050565b600061248382611b1b565b61248d818561246d565b935061249d818560208601611b37565b80840191505092915050565b60006124b58285612478565b91506124c18284612478565b91508190509392505050565b7f4552433732313a206f70657261746f7220717565727920666f72206e6f6e657860008201527f697374656e7420746f6b656e0000000000000000000000000000000000000000602082015250565b6000612529602c83611b26565b9150612534826124cd565b604082019050919050565b600060208201905081810360008301526125588161251c565b9050919050565b7f4552433732313a207472616e736665722066726f6d20696e636f72726563742060008201527f6f776e6572000000000000000000000000000000000000000000000000000000602082015250565b60006125bb602583611b26565b91506125c68261255f565b604082019050919050565b600060208201905081810360008301526125ea816125ae565b9050919050565b7f4552433732313a207472616e7366657220746f20746865207a65726f2061646460008201527f7265737300000000000000000000000000000000000000000000000000000000602082015250565b600061264d602483611b26565b9150612658826125f1565b604082019050919050565b6000602082019050818103600083015261267c81612640565b9050919050565b7f4e487b7100000000000000000000000000000000000000000000000000000000600052601160045260246000fd5b60006126bd82611bd6565b91506126c883611bd6565b9250828210156126db576126da612683565b5b828203905092915050565b60006126f182611bd6565b91506126fc83611bd6565b9250827fffffffffffffffffffffffffffffffffffffffffffffffffffffffffffffffff0382111561273157612730612683565b5b828201905092915050565b7f4552433732313a206d696e7420746f20746865207a65726f2061646472657373600082015250565b6000612772602083611b26565b915061277d8261273c565b602082019050919050565b600060208201905081810360008301526127a181612765565b9050919050565b7f4552433732313a20746f6b656e20616c7265616479206d696e74656400000000600082015250565b60006127de601c83611b26565b91506127e9826127a8565b602082019050919050565b6000602082019050818103600083015261280d816127d1565b9050919050565b7f45524337323155524953746f726167653a2055524920736574206f66206e6f6e60008201527f6578697374656e7420746f6b656e000000000000000000000000000000000000602082015250565b6000612870602e83611b26565b915061287b82612814565b604082019050919050565b6000602082019050818103600083015261289f81612863565b9050919050565b7f4552433732313a20617070726f766520746f2063616c6c657200000000000000600082015250565b60006128dc601983611b26565b91506128e7826128a6565b602082019050919050565b6000602082019050818103600083015261290b816128cf565b9050919050565b7f4552433732313a207472616e7366657220746f206e6f6e20455243373231526560008201527f63656976657220696d706c656d656e7465720000000000000000000000000000602082015250565b600061296e603283611b26565b915061297982612912565b604082019050919050565b6000602082019050818103600083015261299d81612961565b9050919050565b7f4552433732314d657461646174613a2055524920717565727920666f72206e6f60008201527f6e6578697374656e7420746f6b656e0000000000000000000000000000000000602082015250565b6000612a00602f83611b26565b9150612a0b826129a4565b604082019050919050565b60006020820190508181036000830152612a2f816129f3565b9050919050565b600081519050919050565b600082825260208201905092915050565b6000612a5d82612a36565b612a678185612a41565b9350612a77818560208601611b37565b612a8081611b6a565b840191505092915050565b6000608082019050612aa06000830187611c6b565b612aad6020830186611c6b565b612aba6040830185611d81565b8181036060830152612acc8184612a52565b905095945050505050565b600081519050612ae681611a8c565b92915050565b600060208284031215612b0257612b01611a56565b5b6000612b1084828501612ad7565b91505092915050565b6000612b2482611bd6565b91507fffffffffffffffffffffffffffffffffffffffffffffffffffffffffffffffff8203612b5657612b55612683565b5b600182019050919050565b7f4e487b7100000000000000000000000000000000000000000000000000000000600052601260045260246000fd5b6000612b9b82611bd6565b9150612ba683611bd6565b925082612bb657612bb5612b61565b5b828204905092915050565b6000612bcc82611bd6565b9150612bd783611bd6565b925082612be757612be6612b61565b5b828206905092915050565b7f4e487b7100000000000000000000000000000000000000000000000000000000600052603260045260246000fdfea2646970667358221220771a34ea476588dd82279847477655339e5309a4f02df1a967659f4106fcb10064736f6c634300080d003368747470733a2f2f697066732e696f2f697066732f516d65776d4c645068596148466f4446765a61627161463342596754475646646943415042454c56623269594d643f66696c656e616d653d6b6974746965735f636c617373332e706e6768747470733a2f2f697066732e696f2f697066732f516d62595332394241676241556f347a4150716b5361596f5133365843626b7762683967766f58614b4a516d53543f66696c656e616d653d6b6974746965735f636c617373322e706e6768747470733a2f2f697066732e696f2f697066732f516d5775574d654471775943396654415953594d4d3142516b4c73743646366a6f507447574d6b413266484266713f66696c656e616d653d6b6974746965735f636c617373352e706e6768747470733a2f2f697066732e696f2f697066732f516d504b666d77626865635543707352666256614c4c416e61585a514244373539794650643933324238436d624b3f66696c656e616d653d6b6974746965735f636c617373362e706e6768747470733a2f2f697066732e696f2f697066732f516d653458444a56713272613270395268427239435448504536476a366476326746514358524c6b4544414b626b3f66696c656e616d653d6b6974746965735f636c617373372e706e6768747470733a2f2f697066732e696f2f697066732f516d626351345938725872354770376a474e6653596a736e4b74756d36793241786d5a344b336b61436168326a333f66696c656e616d653d6b6974746965735f636c617373342e706e6768747470733a2f2f697066732e696f2f697066732f516d564e32425363574c6842776a58504631673366316331554d62534c585166656b75464b6a62575446463635653f66696c656e616d653d6b6974746965735f636c617373312e706e6768747470733a2f2f697066732e696f2f697066732f516d616e63716e725379644d63723776344c4d7748535856575a636e596a6559514d5971357845635573344336573f66696c656e616d653d6b6974746965735f636c617373382e706e67a2646970667358221220c0abf3e6429c2c04d6574df410640de38105551b60ee49f46b8599e1c33324f664736f6c634300080d0033",
  "immutableReferences": {},
  "source": "// SPDX-License-Identifier: MIT\npragma solidity 0.8.13;\n\nimport \"./NFTManager.sol\";\n\ncontract TRY{\n\n    //create a structure ticket\n    struct Ticket {\n        address buyer;\n        uint[5] numbers;\n        uint powerball;\n    }\n\n    uint constant K = 32; \n    uint public blockClosed; //last block in which the lottery is open\n    uint M; //block duration (given by parameter in constructor)\n    address[] users; //user list\n    Ticket[] tickets; //user's tickets\n    bool public activeLottery;\n    bool public activeRound; //true if a round is active, false otherwise\n    bool public deactivateLottery;\n    address public lottery_manager; //lottery manager address\n    uint ticket_price = 1000000000000000000; //1 eth\n    NFTManager NFT;\n\n    event StartRound();\n    event TicketBought(address buyer, uint[5] number, uint powerball);\n    event Draw(uint[6] numbers);\n    event TicketWinner(address buyer, uint class);\n    event EndRound();\n    event EndLottery();\n\n    constructor(){\n        activeLottery = false;\n        deactivateLottery = false;\n    }\n\n    function startLottery(uint _M) public{\n        activeRound = true;\n        lottery_manager = msg.sender;\n        M = _M;\n        blockClosed = block.number + M; \n        NFT =  new NFTManager();\n\n        for(uint i = 1; i < 8; i++)\n        {\n            mint(i);\n        }\n\n        activeLottery = true;\n\n        emit StartRound();\n    }\n\n    function startNewRound() \n        public\n    {\n        require(lottery_manager == msg.sender, \"You're not the lottery manager\");\n        require(activeRound == false, \"Round already started!\");\n\n        //reset the new closed block\n        blockClosed = block.number + M;\n\n        activeRound = true;\n        emit StartRound();\n    }\n\n    function buy(uint[5] memory _numbers, uint _powerball) \n        public\n        payable\n    {\n\n        //check if the round is activeRound\n        require(activeRound == true, \"Lottery closed\");\n        require(blockClosed > block.number, \"Lottery closed\");\n        \n        //check if the value is enough to buy a ticket\n        uint money = msg.value;\n        require(money >= ticket_price, \"Value too small\");\n\n        //check if the numbers are correct\n        require(_numbers.length == 5, \"Insert 5 number\");\n        require(_powerball >= 1 && _powerball <= 26, \"Insert a correct value for powerball\");\n        for(uint i = 0; i < _numbers.length; i++)\n            require(_numbers[i] >= 1 && _numbers[i] <= 69, \"Insert a correct value for numbers\");\n\n        //create an istance of ticket\n        Ticket memory ticket = Ticket({buyer : msg.sender, numbers : _numbers, powerball : _powerball});\n        tickets.push(ticket);\n\n        //give the change to buyer\n        if(money > ticket_price)\n            payable(msg.sender).transfer(money - ticket_price);\n\n        emit TicketBought(msg.sender, _numbers, _powerball);\n    }\n\n    function drawNumbers()\n        internal\n        returns(uint256[6] memory)\n    {\n        require(lottery_manager == msg.sender, \"You're not the lottery manager\");\n        require(blockClosed <= block.number, \"Lottery not yet closed\");\n\n        uint256[6] memory expandedValues;\n        uint blockNumber = block.number + K;\n        uint previous = 0;\n\n        for (uint256 i = 0; i < 6; i++) \n        {   \n            if (i != 5)\n                expandedValues[i] = (uint256(keccak256(abi.encode(blockNumber, previous))) % 69) + 1;\n            else\n                expandedValues[i] = (uint256(keccak256(abi.encode(blockNumber, previous))) % 29) + 1;\n\n            for(uint j = 0; j < i; j++)\n                if (expandedValues[j] == expandedValues[i])\n                    i--;\n\n            previous = expandedValues[i];\n        }\n\n        emit Draw(expandedValues);\n\n        return expandedValues;\n    }\n\n    function givePrizes()\n        internal\n    {\n        require(lottery_manager == msg.sender, \"You're not the lottery manager\");\n        require(blockClosed <= block.number, \"Lottery not yet closed\");\n        \n        uint256[6] memory drawNumber = drawNumbers();\n\n        for(uint t = 0; t < tickets.length; t++)\n        {\n            uint numberCount = 0;\n            uint powerball = 0;\n            if(tickets[t].powerball == drawNumber[5])\n                powerball = 1;\n            for(uint i = 0; i < 5; i++)\n                for(uint j = 0; j < 5; j++)\n                    if(tickets[t].numbers[i] == drawNumber[j])\n                        numberCount++;\n            \n            uint class = getClass(numberCount, powerball);\n\n            //case in which the user has won the lottery\n            if(class != 0)\n            {\n                //assign the NFT\n                NFT.assignNFT(tickets[t].buyer, class);\n\n                //mint new NFT of the same class\n                mint(class);\n\n                //emit the WinnerTicket event\n                emit TicketWinner(tickets[t].buyer, class);\n            }\n        }\n    }\n\n    function mint(uint class) \n        internal\n    {\n        require(lottery_manager == msg.sender, \"You're not the lottery manager\");\n\n        NFT.mintNFT(class);\n    }\n\n    function closeLottery()\n        public\n        payable\n    {\n        require(lottery_manager == msg.sender, \"You're not the lottery manager\");\n\n        if(blockClosed > block.number)\n            //refund the ticket_price \n            for(uint i = 0; i < tickets.length; i++)\n                payable(tickets[uint(i)].buyer).transfer(ticket_price);\n\n        emit EndLottery();\n\n        deactivateLottery = true;\n\n        //destruct the contract\n        selfdestruct(payable(lottery_manager));\n    }\n\n    function closeRound()\n        public\n        payable\n    {\n        require(lottery_manager == msg.sender, \"You're not the lottery manager\");\n        require(activeRound == true, \"Round already closed!\");\n        require(blockClosed < block.number, \"Round not yet finished!\");\n\n        //give prizes to users\n        givePrizes();\n\n        //give the current contract balance to the lottery manager\n        payable(lottery_manager).transfer(address(this).balance);\n\n        //delete all the tickets bought in this round\n        delete tickets;\n\n        activeRound = false;\n        emit EndRound();\n    }\n\n    function getClass(uint number, uint powerball) \n        internal\n        returns(uint) \n    {\n        if(number == 0 && powerball == 1)\n            return uint(8);\n        else  \n            if(number == 1)\n                return uint(8 - (number + powerball));\n            else\n                if(number == 2)\n                    return uint(8 - (number + powerball));\n                else\n                    if(number == 3)\n                        return uint(8 - (number + powerball));\n                    else\n                        if(number == 4)\n                            return uint(8 - (number + powerball));\n                        else\n                            if(number == 5 && powerball == 0)\n                                return uint(2);\n                            else\n                                if(number == 5 && powerball == 1)\n                                    return uint(1);\n                                else\n                                    return uint(0);\n    }\n}",
  "sourcePath": "/Users/paololanza/Desktop/p2pgit/P2P-BLOCKCHAIN/FinalTerm/contracts/TRY.sol",
  "compiler": {
    "name": "solc",
    "version": "0.8.13+commit.abaa5c0e.Emscripten.clang"
  },
  "schemaVersion": "3.4.7",
  "updatedAt": "2022-06-29T15:55:15.171Z",
  "networkType": "ethereum",
  "devdoc": {
    "kind": "dev",
    "methods": {},
    "version": 1
  },
  "userdoc": {
    "kind": "user",
    "methods": {},
    "version": 1
  }
}